{
	"Code/contracts/Election.sol": {
		"Election": {
			"abi": [
				{
					"anonymous": false,
					"inputs": [
						{
							"indexed": true,
							"internalType": "address",
							"name": "previousOwner",
							"type": "address"
						},
						{
							"indexed": true,
							"internalType": "address",
							"name": "newOwner",
							"type": "address"
						}
					],
					"name": "OwnershipTransferred",
					"type": "event"
				},
				{
					"anonymous": false,
					"inputs": [
						{
							"indexed": true,
							"internalType": "uint256",
							"name": "_candidateId",
							"type": "uint256"
						}
					],
					"name": "votedEvent",
					"type": "event"
				},
				{
					"inputs": [
						{
							"internalType": "string",
							"name": "_name",
							"type": "string"
						}
					],
					"name": "addCandidate",
					"outputs": [],
					"stateMutability": "nonpayable",
					"type": "function"
				},
				{
					"inputs": [
						{
							"internalType": "address",
							"name": "_addr",
							"type": "address"
						}
					],
					"name": "addToWhitelist",
					"outputs": [],
					"stateMutability": "nonpayable",
					"type": "function"
				},
				{
					"inputs": [
						{
							"internalType": "uint256",
							"name": "",
							"type": "uint256"
						}
					],
					"name": "candidates",
					"outputs": [
						{
							"internalType": "uint256",
							"name": "id",
							"type": "uint256"
						},
						{
							"internalType": "string",
							"name": "name",
							"type": "string"
						},
						{
							"internalType": "uint256",
							"name": "voteCount",
							"type": "uint256"
						}
					],
					"stateMutability": "view",
					"type": "function"
				},
				{
					"inputs": [],
					"name": "candidatesCount",
					"outputs": [
						{
							"internalType": "uint256",
							"name": "",
							"type": "uint256"
						}
					],
					"stateMutability": "view",
					"type": "function"
				},
				{
					"inputs": [],
					"name": "owner",
					"outputs": [
						{
							"internalType": "address",
							"name": "",
							"type": "address"
						}
					],
					"stateMutability": "view",
					"type": "function"
				},
				{
					"inputs": [
						{
							"internalType": "address",
							"name": "newOwner",
							"type": "address"
						}
					],
					"name": "transferOwnership",
					"outputs": [],
					"stateMutability": "nonpayable",
					"type": "function"
				},
				{
					"inputs": [
						{
							"internalType": "uint256",
							"name": "_candidateId",
							"type": "uint256"
						}
					],
					"name": "vote",
					"outputs": [],
					"stateMutability": "nonpayable",
					"type": "function"
				},
				{
					"inputs": [
						{
							"internalType": "address",
							"name": "",
							"type": "address"
						}
					],
					"name": "voters",
					"outputs": [
						{
							"internalType": "bool",
							"name": "",
							"type": "bool"
						}
					],
					"stateMutability": "view",
					"type": "function"
				},
				{
					"inputs": [
						{
							"internalType": "address",
							"name": "",
							"type": "address"
						}
					],
					"name": "whitelist",
					"outputs": [
						{
							"internalType": "bool",
							"name": "",
							"type": "bool"
						}
					],
					"stateMutability": "view",
					"type": "function"
				}
			],
			"devdoc": {
				"kind": "dev",
				"methods": {},
				"version": 1
			},
			"evm": {
				"assembly": "    /* \"Code/contracts/Election.sol\":112:1182  contract Election is Ownable {... */\n  mstore(0x40, 0x80)\n  callvalue\n  dup1\n  iszero\n  tag_1\n  jumpi\n  0x00\n  dup1\n  revert\ntag_1:\n  pop\n    /* \"Code/contracts/Ownable.sol\":352:362  msg.sender */\n  caller\n    /* \"Code/contracts/Ownable.sol\":344:349  owner */\n  0x00\n  dup1\n    /* \"Code/contracts/Ownable.sol\":344:362  owner = msg.sender */\n  0x0100\n  exp\n  dup2\n  sload\n  dup2\n  0xffffffffffffffffffffffffffffffffffffffff\n  mul\n  not\n  and\n  swap1\n  dup4\n  0xffffffffffffffffffffffffffffffffffffffff\n  and\n  mul\n  or\n  swap1\n  sstore\n  pop\n    /* \"Code/contracts/Election.sol\":112:1182  contract Election is Ownable {... */\n  dataSize(sub_0)\n  dup1\n  dataOffset(sub_0)\n  0x00\n  codecopy\n  0x00\n  return\nstop\n\nsub_0: assembly {\n        /* \"Code/contracts/Election.sol\":112:1182  contract Election is Ownable {... */\n      mstore(0x40, 0x80)\n      callvalue\n      dup1\n      iszero\n      tag_1\n      jumpi\n      0x00\n      dup1\n      revert\n    tag_1:\n      pop\n      jumpi(tag_2, lt(calldatasize, 0x04))\n      shr(0xe0, calldataload(0x00))\n      dup1\n      0x8da5cb5b\n      gt\n      tag_12\n      jumpi\n      dup1\n      0x8da5cb5b\n      eq\n      tag_7\n      jumpi\n      dup1\n      0x9b19251a\n      eq\n      tag_8\n      jumpi\n      dup1\n      0xa3ec138d\n      eq\n      tag_9\n      jumpi\n      dup1\n      0xe43252d7\n      eq\n      tag_10\n      jumpi\n      dup1\n      0xf2fde38b\n      eq\n      tag_11\n      jumpi\n      jump(tag_2)\n    tag_12:\n      dup1\n      0x0121b93f\n      eq\n      tag_3\n      jumpi\n      dup1\n      0x2d35a8a2\n      eq\n      tag_4\n      jumpi\n      dup1\n      0x3477ee2e\n      eq\n      tag_5\n      jumpi\n      dup1\n      0x462e91ec\n      eq\n      tag_6\n      jumpi\n    tag_2:\n      0x00\n      dup1\n      revert\n        /* \"Code/contracts/Election.sol\":858:1180  function vote(uint _candidateId) public {... */\n    tag_3:\n      tag_13\n      0x04\n      dup1\n      calldatasize\n      sub\n      dup2\n      add\n      swap1\n      tag_14\n      swap2\n      swap1\n      tag_15\n      jump\t// in\n    tag_14:\n      tag_16\n      jump\t// in\n    tag_13:\n      stop\n        /* \"Code/contracts/Election.sol\":371:398  uint public candidatesCount */\n    tag_4:\n      tag_17\n      tag_18\n      jump\t// in\n    tag_17:\n      mload(0x40)\n      tag_19\n      swap2\n      swap1\n      tag_20\n      jump\t// in\n    tag_19:\n      mload(0x40)\n      dup1\n      swap2\n      sub\n      swap1\n      return\n        /* \"Code/contracts/Election.sol\":320:364  mapping(uint => Candidate) public candidates */\n    tag_5:\n      tag_21\n      0x04\n      dup1\n      calldatasize\n      sub\n      dup2\n      add\n      swap1\n      tag_22\n      swap2\n      swap1\n      tag_15\n      jump\t// in\n    tag_22:\n      tag_23\n      jump\t// in\n    tag_21:\n      mload(0x40)\n      tag_24\n      swap4\n      swap3\n      swap2\n      swap1\n      tag_25\n      jump\t// in\n    tag_24:\n      mload(0x40)\n      dup1\n      swap2\n      sub\n      swap1\n      return\n        /* \"Code/contracts/Election.sol\":605:852  function addCandidate(string memory _name) public {... */\n    tag_6:\n      tag_26\n      0x04\n      dup1\n      calldatasize\n      sub\n      dup2\n      add\n      swap1\n      tag_27\n      swap2\n      swap1\n      tag_28\n      jump\t// in\n    tag_27:\n      tag_29\n      jump\t// in\n    tag_26:\n      stop\n        /* \"Code/contracts/Ownable.sol\":203:223  address public owner */\n    tag_7:\n      tag_30\n      tag_31\n      jump\t// in\n    tag_30:\n      mload(0x40)\n      tag_32\n      swap2\n      swap1\n      tag_33\n      jump\t// in\n    tag_32:\n      mload(0x40)\n      dup1\n      swap2\n      sub\n      swap1\n      return\n        /* \"Code/contracts/Election.sol\":405:446  mapping(address => bool) public whitelist */\n    tag_8:\n      tag_34\n      0x04\n      dup1\n      calldatasize\n      sub\n      dup2\n      add\n      swap1\n      tag_35\n      swap2\n      swap1\n      tag_36\n      jump\t// in\n    tag_35:\n      tag_37\n      jump\t// in\n    tag_34:\n      mload(0x40)\n      tag_38\n      swap2\n      swap1\n      tag_39\n      jump\t// in\n    tag_38:\n      mload(0x40)\n      dup1\n      swap2\n      sub\n      swap1\n      return\n        /* \"Code/contracts/Election.sol\":275:313  mapping(address => bool) public voters */\n    tag_9:\n      tag_40\n      0x04\n      dup1\n      calldatasize\n      sub\n      dup2\n      add\n      swap1\n      tag_41\n      swap2\n      swap1\n      tag_36\n      jump\t// in\n    tag_41:\n      tag_42\n      jump\t// in\n    tag_40:\n      mload(0x40)\n      tag_43\n      swap2\n      swap1\n      tag_39\n      jump\t// in\n    tag_43:\n      mload(0x40)\n      dup1\n      swap2\n      sub\n      swap1\n      return\n        /* \"Code/contracts/Election.sol\":503:599  function addToWhitelist(address _addr) public onlyOwner {... */\n    tag_10:\n      tag_44\n      0x04\n      dup1\n      calldatasize\n      sub\n      dup2\n      add\n      swap1\n      tag_45\n      swap2\n      swap1\n      tag_36\n      jump\t// in\n    tag_45:\n      tag_46\n      jump\t// in\n    tag_44:\n      stop\n        /* \"Code/contracts/Ownable.sol\":486:703  function transferOwnership(address newOwner) public onlyOwner {... */\n    tag_11:\n      tag_47\n      0x04\n      dup1\n      calldatasize\n      sub\n      dup2\n      add\n      swap1\n      tag_48\n      swap2\n      swap1\n      tag_36\n      jump\t// in\n    tag_48:\n      tag_49\n      jump\t// in\n    tag_47:\n      stop\n        /* \"Code/contracts/Election.sol\":858:1180  function vote(uint _candidateId) public {... */\n    tag_16:\n        /* \"Code/contracts/Election.sol\":917:923  voters */\n      0x01\n        /* \"Code/contracts/Election.sol\":917:935  voters[msg.sender] */\n      0x00\n        /* \"Code/contracts/Election.sol\":924:934  msg.sender */\n      caller\n        /* \"Code/contracts/Election.sol\":917:935  voters[msg.sender] */\n      0xffffffffffffffffffffffffffffffffffffffff\n      and\n      0xffffffffffffffffffffffffffffffffffffffff\n      and\n      dup2\n      mstore\n      0x20\n      add\n      swap1\n      dup2\n      mstore\n      0x20\n      add\n      0x00\n      keccak256\n      0x00\n      swap1\n      sload\n      swap1\n      0x0100\n      exp\n      swap1\n      div\n      0xff\n      and\n        /* \"Code/contracts/Election.sol\":916:935  !voters[msg.sender] */\n      iszero\n        /* \"Code/contracts/Election.sol\":908:959  require(!voters[msg.sender], \"Vous avez deja vote\") */\n      tag_51\n      jumpi\n      mload(0x40)\n      0x08c379a000000000000000000000000000000000000000000000000000000000\n      dup2\n      mstore\n      0x04\n      add\n      tag_52\n      swap1\n      tag_53\n      jump\t// in\n    tag_52:\n      mload(0x40)\n      dup1\n      swap2\n      sub\n      swap1\n      revert\n    tag_51:\n        /* \"Code/contracts/Election.sol\":993:994  0 */\n      0x00\n        /* \"Code/contracts/Election.sol\":978:990  _candidateId */\n      dup2\n        /* \"Code/contracts/Election.sol\":978:994  _candidateId > 0 */\n      gt\n        /* \"Code/contracts/Election.sol\":978:1029  _candidateId > 0 && _candidateId <= candidatesCount */\n      dup1\n      iszero\n      tag_54\n      jumpi\n      pop\n        /* \"Code/contracts/Election.sol\":1014:1029  candidatesCount */\n      sload(0x03)\n        /* \"Code/contracts/Election.sol\":998:1010  _candidateId */\n      dup2\n        /* \"Code/contracts/Election.sol\":998:1029  _candidateId <= candidatesCount */\n      gt\n      iszero\n        /* \"Code/contracts/Election.sol\":978:1029  _candidateId > 0 && _candidateId <= candidatesCount */\n    tag_54:\n        /* \"Code/contracts/Election.sol\":970:1051  require(_candidateId > 0 && _candidateId <= candidatesCount, \"Candidat invalide\") */\n      tag_55\n      jumpi\n      mload(0x40)\n      0x08c379a000000000000000000000000000000000000000000000000000000000\n      dup2\n      mstore\n      0x04\n      add\n      tag_56\n      swap1\n      tag_57\n      jump\t// in\n    tag_56:\n      mload(0x40)\n      dup1\n      swap2\n      sub\n      swap1\n      revert\n    tag_55:\n        /* \"Code/contracts/Election.sol\":1083:1087  true */\n      0x01\n        /* \"Code/contracts/Election.sol\":1062:1068  voters */\n      dup1\n        /* \"Code/contracts/Election.sol\":1062:1080  voters[msg.sender] */\n      0x00\n        /* \"Code/contracts/Election.sol\":1069:1079  msg.sender */\n      caller\n        /* \"Code/contracts/Election.sol\":1062:1080  voters[msg.sender] */\n      0xffffffffffffffffffffffffffffffffffffffff\n      and\n      0xffffffffffffffffffffffffffffffffffffffff\n      and\n      dup2\n      mstore\n      0x20\n      add\n      swap1\n      dup2\n      mstore\n      0x20\n      add\n      0x00\n      keccak256\n      0x00\n        /* \"Code/contracts/Election.sol\":1062:1087  voters[msg.sender] = true */\n      0x0100\n      exp\n      dup2\n      sload\n      dup2\n      0xff\n      mul\n      not\n      and\n      swap1\n      dup4\n      iszero\n      iszero\n      mul\n      or\n      swap1\n      sstore\n      pop\n        /* \"Code/contracts/Election.sol\":1097:1107  candidates */\n      0x02\n        /* \"Code/contracts/Election.sol\":1097:1121  candidates[_candidateId] */\n      0x00\n        /* \"Code/contracts/Election.sol\":1108:1120  _candidateId */\n      dup3\n        /* \"Code/contracts/Election.sol\":1097:1121  candidates[_candidateId] */\n      dup2\n      mstore\n      0x20\n      add\n      swap1\n      dup2\n      mstore\n      0x20\n      add\n      0x00\n      keccak256\n        /* \"Code/contracts/Election.sol\":1097:1131  candidates[_candidateId].voteCount */\n      0x02\n      add\n      0x00\n        /* \"Code/contracts/Election.sol\":1097:1133  candidates[_candidateId].voteCount++ */\n      dup2\n      sload\n      dup1\n      swap3\n      swap2\n      swap1\n      tag_58\n      swap1\n      tag_59\n      jump\t// in\n    tag_58:\n      swap2\n      swap1\n      pop\n      sstore\n      pop\n        /* \"Code/contracts/Election.sol\":1160:1172  _candidateId */\n      dup1\n        /* \"Code/contracts/Election.sol\":1149:1173  votedEvent(_candidateId) */\n      0xfff3c900d938d21d0990d786e819f29b8d05c1ef587b462b939609625b684b16\n      mload(0x40)\n      mload(0x40)\n      dup1\n      swap2\n      sub\n      swap1\n      log2\n        /* \"Code/contracts/Election.sol\":858:1180  function vote(uint _candidateId) public {... */\n      pop\n      jump\t// out\n        /* \"Code/contracts/Election.sol\":371:398  uint public candidatesCount */\n    tag_18:\n      sload(0x03)\n      dup2\n      jump\t// out\n        /* \"Code/contracts/Election.sol\":320:364  mapping(uint => Candidate) public candidates */\n    tag_23:\n      mstore(0x20, 0x02)\n      dup1\n      0x00\n      mstore\n      keccak256(0x00, 0x40)\n      0x00\n      swap2\n      pop\n      swap1\n      pop\n      dup1\n      0x00\n      add\n      sload\n      swap1\n      dup1\n      0x01\n      add\n      dup1\n      sload\n      tag_60\n      swap1\n      tag_61\n      jump\t// in\n    tag_60:\n      dup1\n      0x1f\n      add\n      0x20\n      dup1\n      swap2\n      div\n      mul\n      0x20\n      add\n      mload(0x40)\n      swap1\n      dup2\n      add\n      0x40\n      mstore\n      dup1\n      swap3\n      swap2\n      swap1\n      dup2\n      dup2\n      mstore\n      0x20\n      add\n      dup3\n      dup1\n      sload\n      tag_62\n      swap1\n      tag_61\n      jump\t// in\n    tag_62:\n      dup1\n      iszero\n      tag_63\n      jumpi\n      dup1\n      0x1f\n      lt\n      tag_64\n      jumpi\n      0x0100\n      dup1\n      dup4\n      sload\n      div\n      mul\n      dup4\n      mstore\n      swap2\n      0x20\n      add\n      swap2\n      jump(tag_63)\n    tag_64:\n      dup3\n      add\n      swap2\n      swap1\n      0x00\n      mstore\n      keccak256(0x00, 0x20)\n      swap1\n    tag_65:\n      dup2\n      sload\n      dup2\n      mstore\n      swap1\n      0x01\n      add\n      swap1\n      0x20\n      add\n      dup1\n      dup4\n      gt\n      tag_65\n      jumpi\n      dup3\n      swap1\n      sub\n      0x1f\n      and\n      dup3\n      add\n      swap2\n    tag_63:\n      pop\n      pop\n      pop\n      pop\n      pop\n      swap1\n      dup1\n      0x02\n      add\n      sload\n      swap1\n      pop\n      dup4\n      jump\t// out\n        /* \"Code/contracts/Election.sol\":605:852  function addCandidate(string memory _name) public {... */\n    tag_29:\n        /* \"Code/contracts/Election.sol\":673:682  whitelist */\n      0x04\n        /* \"Code/contracts/Election.sol\":673:694  whitelist[msg.sender] */\n      0x00\n        /* \"Code/contracts/Election.sol\":683:693  msg.sender */\n      caller\n        /* \"Code/contracts/Election.sol\":673:694  whitelist[msg.sender] */\n      0xffffffffffffffffffffffffffffffffffffffff\n      and\n      0xffffffffffffffffffffffffffffffffffffffff\n      and\n      dup2\n      mstore\n      0x20\n      add\n      swap1\n      dup2\n      mstore\n      0x20\n      add\n      0x00\n      keccak256\n      0x00\n      swap1\n      sload\n      swap1\n      0x0100\n      exp\n      swap1\n      div\n      0xff\n      and\n        /* \"Code/contracts/Election.sol\":665:742  require(whitelist[msg.sender], \"Adresse non autorisee a ajouter un candidat\") */\n      tag_67\n      jumpi\n      mload(0x40)\n      0x08c379a000000000000000000000000000000000000000000000000000000000\n      dup2\n      mstore\n      0x04\n      add\n      tag_68\n      swap1\n      tag_69\n      jump\t// in\n    tag_68:\n      mload(0x40)\n      dup1\n      swap2\n      sub\n      swap1\n      revert\n    tag_67:\n        /* \"Code/contracts/Election.sol\":752:767  candidatesCount */\n      0x03\n      0x00\n        /* \"Code/contracts/Election.sol\":752:769  candidatesCount++ */\n      dup2\n      sload\n      dup1\n      swap3\n      swap2\n      swap1\n      tag_70\n      swap1\n      tag_59\n      jump\t// in\n    tag_70:\n      swap2\n      swap1\n      pop\n      sstore\n      pop\n        /* \"Code/contracts/Election.sol\":809:845  Candidate(candidatesCount, _name, 0) */\n      mload(0x40)\n      dup1\n      0x60\n      add\n      0x40\n      mstore\n      dup1\n        /* \"Code/contracts/Election.sol\":819:834  candidatesCount */\n      sload(0x03)\n        /* \"Code/contracts/Election.sol\":809:845  Candidate(candidatesCount, _name, 0) */\n      dup2\n      mstore\n      0x20\n      add\n        /* \"Code/contracts/Election.sol\":836:841  _name */\n      dup3\n        /* \"Code/contracts/Election.sol\":809:845  Candidate(candidatesCount, _name, 0) */\n      dup2\n      mstore\n      0x20\n      add\n        /* \"Code/contracts/Election.sol\":843:844  0 */\n      0x00\n        /* \"Code/contracts/Election.sol\":809:845  Candidate(candidatesCount, _name, 0) */\n      dup2\n      mstore\n      pop\n        /* \"Code/contracts/Election.sol\":779:789  candidates */\n      0x02\n        /* \"Code/contracts/Election.sol\":779:806  candidates[candidatesCount] */\n      0x00\n        /* \"Code/contracts/Election.sol\":790:805  candidatesCount */\n      sload(0x03)\n        /* \"Code/contracts/Election.sol\":779:806  candidates[candidatesCount] */\n      dup2\n      mstore\n      0x20\n      add\n      swap1\n      dup2\n      mstore\n      0x20\n      add\n      0x00\n      keccak256\n        /* \"Code/contracts/Election.sol\":779:845  candidates[candidatesCount] = Candidate(candidatesCount, _name, 0) */\n      0x00\n      dup3\n      add\n      mload\n      dup2\n      0x00\n      add\n      sstore\n      0x20\n      dup3\n      add\n      mload\n      dup2\n      0x01\n      add\n      swap1\n      dup2\n      tag_71\n      swap2\n      swap1\n      tag_72\n      jump\t// in\n    tag_71:\n      pop\n      0x40\n      dup3\n      add\n      mload\n      dup2\n      0x02\n      add\n      sstore\n      swap1\n      pop\n      pop\n        /* \"Code/contracts/Election.sol\":605:852  function addCandidate(string memory _name) public {... */\n      pop\n      jump\t// out\n        /* \"Code/contracts/Ownable.sol\":203:223  address public owner */\n    tag_31:\n      0x00\n      dup1\n      sload\n      swap1\n      0x0100\n      exp\n      swap1\n      div\n      0xffffffffffffffffffffffffffffffffffffffff\n      and\n      dup2\n      jump\t// out\n        /* \"Code/contracts/Election.sol\":405:446  mapping(address => bool) public whitelist */\n    tag_37:\n      mstore(0x20, 0x04)\n      dup1\n      0x00\n      mstore\n      keccak256(0x00, 0x40)\n      0x00\n      swap2\n      pop\n      sload\n      swap1\n      0x0100\n      exp\n      swap1\n      div\n      0xff\n      and\n      dup2\n      jump\t// out\n        /* \"Code/contracts/Election.sol\":275:313  mapping(address => bool) public voters */\n    tag_42:\n      mstore(0x20, 0x01)\n      dup1\n      0x00\n      mstore\n      keccak256(0x00, 0x40)\n      0x00\n      swap2\n      pop\n      sload\n      swap1\n      0x0100\n      exp\n      swap1\n      div\n      0xff\n      and\n      dup2\n      jump\t// out\n        /* \"Code/contracts/Election.sol\":503:599  function addToWhitelist(address _addr) public onlyOwner {... */\n    tag_46:\n        /* \"Code/contracts/Ownable.sol\":428:433  owner */\n      0x00\n      dup1\n      sload\n      swap1\n      0x0100\n      exp\n      swap1\n      div\n      0xffffffffffffffffffffffffffffffffffffffff\n      and\n        /* \"Code/contracts/Ownable.sol\":414:433  msg.sender == owner */\n      0xffffffffffffffffffffffffffffffffffffffff\n      and\n        /* \"Code/contracts/Ownable.sol\":414:424  msg.sender */\n      caller\n        /* \"Code/contracts/Ownable.sol\":414:433  msg.sender == owner */\n      0xffffffffffffffffffffffffffffffffffffffff\n      and\n      eq\n        /* \"Code/contracts/Ownable.sol\":406:462  require(msg.sender == owner, \"Not authorized operation\") */\n      tag_74\n      jumpi\n      mload(0x40)\n      0x08c379a000000000000000000000000000000000000000000000000000000000\n      dup2\n      mstore\n      0x04\n      add\n      tag_75\n      swap1\n      tag_76\n      jump\t// in\n    tag_75:\n      mload(0x40)\n      dup1\n      swap2\n      sub\n      swap1\n      revert\n    tag_74:\n        /* \"Code/contracts/Election.sol\":588:592  true */\n      0x01\n        /* \"Code/contracts/Election.sol\":569:578  whitelist */\n      0x04\n        /* \"Code/contracts/Election.sol\":569:585  whitelist[_addr] */\n      0x00\n        /* \"Code/contracts/Election.sol\":579:584  _addr */\n      dup4\n        /* \"Code/contracts/Election.sol\":569:585  whitelist[_addr] */\n      0xffffffffffffffffffffffffffffffffffffffff\n      and\n      0xffffffffffffffffffffffffffffffffffffffff\n      and\n      dup2\n      mstore\n      0x20\n      add\n      swap1\n      dup2\n      mstore\n      0x20\n      add\n      0x00\n      keccak256\n      0x00\n        /* \"Code/contracts/Election.sol\":569:592  whitelist[_addr] = true */\n      0x0100\n      exp\n      dup2\n      sload\n      dup2\n      0xff\n      mul\n      not\n      and\n      swap1\n      dup4\n      iszero\n      iszero\n      mul\n      or\n      swap1\n      sstore\n      pop\n        /* \"Code/contracts/Election.sol\":503:599  function addToWhitelist(address _addr) public onlyOwner {... */\n      pop\n      jump\t// out\n        /* \"Code/contracts/Ownable.sol\":486:703  function transferOwnership(address newOwner) public onlyOwner {... */\n    tag_49:\n        /* \"Code/contracts/Ownable.sol\":428:433  owner */\n      0x00\n      dup1\n      sload\n      swap1\n      0x0100\n      exp\n      swap1\n      div\n      0xffffffffffffffffffffffffffffffffffffffff\n      and\n        /* \"Code/contracts/Ownable.sol\":414:433  msg.sender == owner */\n      0xffffffffffffffffffffffffffffffffffffffff\n      and\n        /* \"Code/contracts/Ownable.sol\":414:424  msg.sender */\n      caller\n        /* \"Code/contracts/Ownable.sol\":414:433  msg.sender == owner */\n      0xffffffffffffffffffffffffffffffffffffffff\n      and\n      eq\n        /* \"Code/contracts/Ownable.sol\":406:462  require(msg.sender == owner, \"Not authorized operation\") */\n      tag_79\n      jumpi\n      mload(0x40)\n      0x08c379a000000000000000000000000000000000000000000000000000000000\n      dup2\n      mstore\n      0x04\n      add\n      tag_80\n      swap1\n      tag_76\n      jump\t// in\n    tag_80:\n      mload(0x40)\n      dup1\n      swap2\n      sub\n      swap1\n      revert\n    tag_79:\n        /* \"Code/contracts/Ownable.sol\":586:587  0 */\n      0x00\n        /* \"Code/contracts/Ownable.sol\":566:588  newOwner != address(0) */\n      0xffffffffffffffffffffffffffffffffffffffff\n      and\n        /* \"Code/contracts/Ownable.sol\":566:574  newOwner */\n      dup2\n        /* \"Code/contracts/Ownable.sol\":566:588  newOwner != address(0) */\n      0xffffffffffffffffffffffffffffffffffffffff\n      and\n      sub\n        /* \"Code/contracts/Ownable.sol\":558:618  require(newOwner != address(0), \"Address shouldn't be zero\") */\n      tag_82\n      jumpi\n      mload(0x40)\n      0x08c379a000000000000000000000000000000000000000000000000000000000\n      dup2\n      mstore\n      0x04\n      add\n      tag_83\n      swap1\n      tag_84\n      jump\t// in\n    tag_83:\n      mload(0x40)\n      dup1\n      swap2\n      sub\n      swap1\n      revert\n    tag_82:\n        /* \"Code/contracts/Ownable.sol\":661:669  newOwner */\n      dup1\n        /* \"Code/contracts/Ownable.sol\":633:670  OwnershipTransferred(owner, newOwner) */\n      0xffffffffffffffffffffffffffffffffffffffff\n      and\n        /* \"Code/contracts/Ownable.sol\":654:659  owner */\n      0x00\n      dup1\n      sload\n      swap1\n      0x0100\n      exp\n      swap1\n      div\n      0xffffffffffffffffffffffffffffffffffffffff\n      and\n        /* \"Code/contracts/Ownable.sol\":633:670  OwnershipTransferred(owner, newOwner) */\n      0xffffffffffffffffffffffffffffffffffffffff\n      and\n      0x8be0079c531659141344cd1fd0a4f28419497f9722a3daafe3b4186f6b6457e0\n      mload(0x40)\n      mload(0x40)\n      dup1\n      swap2\n      sub\n      swap1\n      log3\n        /* \"Code/contracts/Ownable.sol\":688:696  newOwner */\n      dup1\n        /* \"Code/contracts/Ownable.sol\":680:685  owner */\n      0x00\n      dup1\n        /* \"Code/contracts/Ownable.sol\":680:696  owner = newOwner */\n      0x0100\n      exp\n      dup2\n      sload\n      dup2\n      0xffffffffffffffffffffffffffffffffffffffff\n      mul\n      not\n      and\n      swap1\n      dup4\n      0xffffffffffffffffffffffffffffffffffffffff\n      and\n      mul\n      or\n      swap1\n      sstore\n      pop\n        /* \"Code/contracts/Ownable.sol\":486:703  function transferOwnership(address newOwner) public onlyOwner {... */\n      pop\n      jump\t// out\n        /* \"#utility.yul\":7:82   */\n    tag_85:\n        /* \"#utility.yul\":40:46   */\n      0x00\n        /* \"#utility.yul\":73:75   */\n      0x40\n        /* \"#utility.yul\":67:76   */\n      mload\n        /* \"#utility.yul\":57:76   */\n      swap1\n      pop\n        /* \"#utility.yul\":7:82   */\n      swap1\n      jump\t// out\n        /* \"#utility.yul\":88:205   */\n    tag_86:\n        /* \"#utility.yul\":197:198   */\n      0x00\n        /* \"#utility.yul\":194:195   */\n      dup1\n        /* \"#utility.yul\":187:199   */\n      revert\n        /* \"#utility.yul\":211:328   */\n    tag_87:\n        /* \"#utility.yul\":320:321   */\n      0x00\n        /* \"#utility.yul\":317:318   */\n      dup1\n        /* \"#utility.yul\":310:322   */\n      revert\n        /* \"#utility.yul\":334:411   */\n    tag_88:\n        /* \"#utility.yul\":371:378   */\n      0x00\n        /* \"#utility.yul\":400:405   */\n      dup2\n        /* \"#utility.yul\":389:405   */\n      swap1\n      pop\n        /* \"#utility.yul\":334:411   */\n      swap2\n      swap1\n      pop\n      jump\t// out\n        /* \"#utility.yul\":417:539   */\n    tag_89:\n        /* \"#utility.yul\":490:514   */\n      tag_146\n        /* \"#utility.yul\":508:513   */\n      dup2\n        /* \"#utility.yul\":490:514   */\n      tag_88\n      jump\t// in\n    tag_146:\n        /* \"#utility.yul\":483:488   */\n      dup2\n        /* \"#utility.yul\":480:515   */\n      eq\n        /* \"#utility.yul\":470:533   */\n      tag_147\n      jumpi\n        /* \"#utility.yul\":529:530   */\n      0x00\n        /* \"#utility.yul\":526:527   */\n      dup1\n        /* \"#utility.yul\":519:531   */\n      revert\n        /* \"#utility.yul\":470:533   */\n    tag_147:\n        /* \"#utility.yul\":417:539   */\n      pop\n      jump\t// out\n        /* \"#utility.yul\":545:684   */\n    tag_90:\n        /* \"#utility.yul\":591:596   */\n      0x00\n        /* \"#utility.yul\":629:635   */\n      dup2\n        /* \"#utility.yul\":616:636   */\n      calldataload\n        /* \"#utility.yul\":607:636   */\n      swap1\n      pop\n        /* \"#utility.yul\":645:678   */\n      tag_149\n        /* \"#utility.yul\":672:677   */\n      dup2\n        /* \"#utility.yul\":645:678   */\n      tag_89\n      jump\t// in\n    tag_149:\n        /* \"#utility.yul\":545:684   */\n      swap3\n      swap2\n      pop\n      pop\n      jump\t// out\n        /* \"#utility.yul\":690:1019   */\n    tag_15:\n        /* \"#utility.yul\":749:755   */\n      0x00\n        /* \"#utility.yul\":798:800   */\n      0x20\n        /* \"#utility.yul\":786:795   */\n      dup3\n        /* \"#utility.yul\":777:784   */\n      dup5\n        /* \"#utility.yul\":773:796   */\n      sub\n        /* \"#utility.yul\":769:801   */\n      slt\n        /* \"#utility.yul\":766:885   */\n      iszero\n      tag_151\n      jumpi\n        /* \"#utility.yul\":804:883   */\n      tag_152\n      tag_86\n      jump\t// in\n    tag_152:\n        /* \"#utility.yul\":766:885   */\n    tag_151:\n        /* \"#utility.yul\":924:925   */\n      0x00\n        /* \"#utility.yul\":949:1002   */\n      tag_153\n        /* \"#utility.yul\":994:1001   */\n      dup5\n        /* \"#utility.yul\":985:991   */\n      dup3\n        /* \"#utility.yul\":974:983   */\n      dup6\n        /* \"#utility.yul\":970:992   */\n      add\n        /* \"#utility.yul\":949:1002   */\n      tag_90\n      jump\t// in\n    tag_153:\n        /* \"#utility.yul\":939:1002   */\n      swap2\n      pop\n        /* \"#utility.yul\":895:1012   */\n      pop\n        /* \"#utility.yul\":690:1019   */\n      swap3\n      swap2\n      pop\n      pop\n      jump\t// out\n        /* \"#utility.yul\":1025:1143   */\n    tag_91:\n        /* \"#utility.yul\":1112:1136   */\n      tag_155\n        /* \"#utility.yul\":1130:1135   */\n      dup2\n        /* \"#utility.yul\":1112:1136   */\n      tag_88\n      jump\t// in\n    tag_155:\n        /* \"#utility.yul\":1107:1110   */\n      dup3\n        /* \"#utility.yul\":1100:1137   */\n      mstore\n        /* \"#utility.yul\":1025:1143   */\n      pop\n      pop\n      jump\t// out\n        /* \"#utility.yul\":1149:1371   */\n    tag_20:\n        /* \"#utility.yul\":1242:1246   */\n      0x00\n        /* \"#utility.yul\":1280:1282   */\n      0x20\n        /* \"#utility.yul\":1269:1278   */\n      dup3\n        /* \"#utility.yul\":1265:1283   */\n      add\n        /* \"#utility.yul\":1257:1283   */\n      swap1\n      pop\n        /* \"#utility.yul\":1293:1364   */\n      tag_157\n        /* \"#utility.yul\":1361:1362   */\n      0x00\n        /* \"#utility.yul\":1350:1359   */\n      dup4\n        /* \"#utility.yul\":1346:1363   */\n      add\n        /* \"#utility.yul\":1337:1343   */\n      dup5\n        /* \"#utility.yul\":1293:1364   */\n      tag_91\n      jump\t// in\n    tag_157:\n        /* \"#utility.yul\":1149:1371   */\n      swap3\n      swap2\n      pop\n      pop\n      jump\t// out\n        /* \"#utility.yul\":1377:1476   */\n    tag_92:\n        /* \"#utility.yul\":1429:1435   */\n      0x00\n        /* \"#utility.yul\":1463:1468   */\n      dup2\n        /* \"#utility.yul\":1457:1469   */\n      mload\n        /* \"#utility.yul\":1447:1469   */\n      swap1\n      pop\n        /* \"#utility.yul\":1377:1476   */\n      swap2\n      swap1\n      pop\n      jump\t// out\n        /* \"#utility.yul\":1482:1651   */\n    tag_93:\n        /* \"#utility.yul\":1566:1577   */\n      0x00\n        /* \"#utility.yul\":1600:1606   */\n      dup3\n        /* \"#utility.yul\":1595:1598   */\n      dup3\n        /* \"#utility.yul\":1588:1607   */\n      mstore\n        /* \"#utility.yul\":1640:1644   */\n      0x20\n        /* \"#utility.yul\":1635:1638   */\n      dup3\n        /* \"#utility.yul\":1631:1645   */\n      add\n        /* \"#utility.yul\":1616:1645   */\n      swap1\n      pop\n        /* \"#utility.yul\":1482:1651   */\n      swap3\n      swap2\n      pop\n      pop\n      jump\t// out\n        /* \"#utility.yul\":1657:1796   */\n    tag_94:\n        /* \"#utility.yul\":1746:1752   */\n      dup3\n        /* \"#utility.yul\":1741:1744   */\n      dup2\n        /* \"#utility.yul\":1736:1739   */\n      dup4\n        /* \"#utility.yul\":1730:1753   */\n      mcopy\n        /* \"#utility.yul\":1787:1788   */\n      0x00\n        /* \"#utility.yul\":1778:1784   */\n      dup4\n        /* \"#utility.yul\":1773:1776   */\n      dup4\n        /* \"#utility.yul\":1769:1785   */\n      add\n        /* \"#utility.yul\":1762:1789   */\n      mstore\n        /* \"#utility.yul\":1657:1796   */\n      pop\n      pop\n      pop\n      jump\t// out\n        /* \"#utility.yul\":1802:1904   */\n    tag_95:\n        /* \"#utility.yul\":1843:1849   */\n      0x00\n        /* \"#utility.yul\":1894:1896   */\n      0x1f\n        /* \"#utility.yul\":1890:1897   */\n      not\n        /* \"#utility.yul\":1885:1887   */\n      0x1f\n        /* \"#utility.yul\":1878:1883   */\n      dup4\n        /* \"#utility.yul\":1874:1888   */\n      add\n        /* \"#utility.yul\":1870:1898   */\n      and\n        /* \"#utility.yul\":1860:1898   */\n      swap1\n      pop\n        /* \"#utility.yul\":1802:1904   */\n      swap2\n      swap1\n      pop\n      jump\t// out\n        /* \"#utility.yul\":1910:2287   */\n    tag_96:\n        /* \"#utility.yul\":1998:2001   */\n      0x00\n        /* \"#utility.yul\":2026:2065   */\n      tag_163\n        /* \"#utility.yul\":2059:2064   */\n      dup3\n        /* \"#utility.yul\":2026:2065   */\n      tag_92\n      jump\t// in\n    tag_163:\n        /* \"#utility.yul\":2081:2152   */\n      tag_164\n        /* \"#utility.yul\":2145:2151   */\n      dup2\n        /* \"#utility.yul\":2140:2143   */\n      dup6\n        /* \"#utility.yul\":2081:2152   */\n      tag_93\n      jump\t// in\n    tag_164:\n        /* \"#utility.yul\":2074:2152   */\n      swap4\n      pop\n        /* \"#utility.yul\":2161:2226   */\n      tag_165\n        /* \"#utility.yul\":2219:2225   */\n      dup2\n        /* \"#utility.yul\":2214:2217   */\n      dup6\n        /* \"#utility.yul\":2207:2211   */\n      0x20\n        /* \"#utility.yul\":2200:2205   */\n      dup7\n        /* \"#utility.yul\":2196:2212   */\n      add\n        /* \"#utility.yul\":2161:2226   */\n      tag_94\n      jump\t// in\n    tag_165:\n        /* \"#utility.yul\":2251:2280   */\n      tag_166\n        /* \"#utility.yul\":2273:2279   */\n      dup2\n        /* \"#utility.yul\":2251:2280   */\n      tag_95\n      jump\t// in\n    tag_166:\n        /* \"#utility.yul\":2246:2249   */\n      dup5\n        /* \"#utility.yul\":2242:2281   */\n      add\n        /* \"#utility.yul\":2235:2281   */\n      swap2\n      pop\n        /* \"#utility.yul\":2002:2287   */\n      pop\n        /* \"#utility.yul\":1910:2287   */\n      swap3\n      swap2\n      pop\n      pop\n      jump\t// out\n        /* \"#utility.yul\":2293:2826   */\n    tag_25:\n        /* \"#utility.yul\":2462:2466   */\n      0x00\n        /* \"#utility.yul\":2500:2502   */\n      0x60\n        /* \"#utility.yul\":2489:2498   */\n      dup3\n        /* \"#utility.yul\":2485:2503   */\n      add\n        /* \"#utility.yul\":2477:2503   */\n      swap1\n      pop\n        /* \"#utility.yul\":2513:2584   */\n      tag_168\n        /* \"#utility.yul\":2581:2582   */\n      0x00\n        /* \"#utility.yul\":2570:2579   */\n      dup4\n        /* \"#utility.yul\":2566:2583   */\n      add\n        /* \"#utility.yul\":2557:2563   */\n      dup7\n        /* \"#utility.yul\":2513:2584   */\n      tag_91\n      jump\t// in\n    tag_168:\n        /* \"#utility.yul\":2631:2640   */\n      dup2\n        /* \"#utility.yul\":2625:2629   */\n      dup2\n        /* \"#utility.yul\":2621:2641   */\n      sub\n        /* \"#utility.yul\":2616:2618   */\n      0x20\n        /* \"#utility.yul\":2605:2614   */\n      dup4\n        /* \"#utility.yul\":2601:2619   */\n      add\n        /* \"#utility.yul\":2594:2642   */\n      mstore\n        /* \"#utility.yul\":2659:2737   */\n      tag_169\n        /* \"#utility.yul\":2732:2736   */\n      dup2\n        /* \"#utility.yul\":2723:2729   */\n      dup6\n        /* \"#utility.yul\":2659:2737   */\n      tag_96\n      jump\t// in\n    tag_169:\n        /* \"#utility.yul\":2651:2737   */\n      swap1\n      pop\n        /* \"#utility.yul\":2747:2819   */\n      tag_170\n        /* \"#utility.yul\":2815:2817   */\n      0x40\n        /* \"#utility.yul\":2804:2813   */\n      dup4\n        /* \"#utility.yul\":2800:2818   */\n      add\n        /* \"#utility.yul\":2791:2797   */\n      dup5\n        /* \"#utility.yul\":2747:2819   */\n      tag_91\n      jump\t// in\n    tag_170:\n        /* \"#utility.yul\":2293:2826   */\n      swap5\n      swap4\n      pop\n      pop\n      pop\n      pop\n      jump\t// out\n        /* \"#utility.yul\":2832:2949   */\n    tag_97:\n        /* \"#utility.yul\":2941:2942   */\n      0x00\n        /* \"#utility.yul\":2938:2939   */\n      dup1\n        /* \"#utility.yul\":2931:2943   */\n      revert\n        /* \"#utility.yul\":2955:3072   */\n    tag_98:\n        /* \"#utility.yul\":3064:3065   */\n      0x00\n        /* \"#utility.yul\":3061:3062   */\n      dup1\n        /* \"#utility.yul\":3054:3066   */\n      revert\n        /* \"#utility.yul\":3078:3258   */\n    tag_99:\n        /* \"#utility.yul\":3126:3203   */\n      0x4e487b7100000000000000000000000000000000000000000000000000000000\n        /* \"#utility.yul\":3123:3124   */\n      0x00\n        /* \"#utility.yul\":3116:3204   */\n      mstore\n        /* \"#utility.yul\":3223:3227   */\n      0x41\n        /* \"#utility.yul\":3220:3221   */\n      0x04\n        /* \"#utility.yul\":3213:3228   */\n      mstore\n        /* \"#utility.yul\":3247:3251   */\n      0x24\n        /* \"#utility.yul\":3244:3245   */\n      0x00\n        /* \"#utility.yul\":3237:3252   */\n      revert\n        /* \"#utility.yul\":3264:3545   */\n    tag_100:\n        /* \"#utility.yul\":3347:3374   */\n      tag_175\n        /* \"#utility.yul\":3369:3373   */\n      dup3\n        /* \"#utility.yul\":3347:3374   */\n      tag_95\n      jump\t// in\n    tag_175:\n        /* \"#utility.yul\":3339:3345   */\n      dup2\n        /* \"#utility.yul\":3335:3375   */\n      add\n        /* \"#utility.yul\":3477:3483   */\n      dup2\n        /* \"#utility.yul\":3465:3475   */\n      dup2\n        /* \"#utility.yul\":3462:3484   */\n      lt\n        /* \"#utility.yul\":3441:3459   */\n      0xffffffffffffffff\n        /* \"#utility.yul\":3429:3439   */\n      dup3\n        /* \"#utility.yul\":3426:3460   */\n      gt\n        /* \"#utility.yul\":3423:3485   */\n      or\n        /* \"#utility.yul\":3420:3508   */\n      iszero\n      tag_176\n      jumpi\n        /* \"#utility.yul\":3488:3506   */\n      tag_177\n      tag_99\n      jump\t// in\n    tag_177:\n        /* \"#utility.yul\":3420:3508   */\n    tag_176:\n        /* \"#utility.yul\":3528:3538   */\n      dup1\n        /* \"#utility.yul\":3524:3526   */\n      0x40\n        /* \"#utility.yul\":3517:3539   */\n      mstore\n        /* \"#utility.yul\":3307:3545   */\n      pop\n        /* \"#utility.yul\":3264:3545   */\n      pop\n      pop\n      jump\t// out\n        /* \"#utility.yul\":3551:3680   */\n    tag_101:\n        /* \"#utility.yul\":3585:3591   */\n      0x00\n        /* \"#utility.yul\":3612:3632   */\n      tag_179\n      tag_85\n      jump\t// in\n    tag_179:\n        /* \"#utility.yul\":3602:3632   */\n      swap1\n      pop\n        /* \"#utility.yul\":3641:3674   */\n      tag_180\n        /* \"#utility.yul\":3669:3673   */\n      dup3\n        /* \"#utility.yul\":3661:3667   */\n      dup3\n        /* \"#utility.yul\":3641:3674   */\n      tag_100\n      jump\t// in\n    tag_180:\n        /* \"#utility.yul\":3551:3680   */\n      swap2\n      swap1\n      pop\n      jump\t// out\n        /* \"#utility.yul\":3686:3994   */\n    tag_102:\n        /* \"#utility.yul\":3748:3752   */\n      0x00\n        /* \"#utility.yul\":3838:3856   */\n      0xffffffffffffffff\n        /* \"#utility.yul\":3830:3836   */\n      dup3\n        /* \"#utility.yul\":3827:3857   */\n      gt\n        /* \"#utility.yul\":3824:3880   */\n      iszero\n      tag_182\n      jumpi\n        /* \"#utility.yul\":3860:3878   */\n      tag_183\n      tag_99\n      jump\t// in\n    tag_183:\n        /* \"#utility.yul\":3824:3880   */\n    tag_182:\n        /* \"#utility.yul\":3898:3927   */\n      tag_184\n        /* \"#utility.yul\":3920:3926   */\n      dup3\n        /* \"#utility.yul\":3898:3927   */\n      tag_95\n      jump\t// in\n    tag_184:\n        /* \"#utility.yul\":3890:3927   */\n      swap1\n      pop\n        /* \"#utility.yul\":3982:3986   */\n      0x20\n        /* \"#utility.yul\":3976:3980   */\n      dup2\n        /* \"#utility.yul\":3972:3987   */\n      add\n        /* \"#utility.yul\":3964:3987   */\n      swap1\n      pop\n        /* \"#utility.yul\":3686:3994   */\n      swap2\n      swap1\n      pop\n      jump\t// out\n        /* \"#utility.yul\":4000:4148   */\n    tag_103:\n        /* \"#utility.yul\":4098:4104   */\n      dup3\n        /* \"#utility.yul\":4093:4096   */\n      dup2\n        /* \"#utility.yul\":4088:4091   */\n      dup4\n        /* \"#utility.yul\":4075:4105   */\n      calldatacopy\n        /* \"#utility.yul\":4139:4140   */\n      0x00\n        /* \"#utility.yul\":4130:4136   */\n      dup4\n        /* \"#utility.yul\":4125:4128   */\n      dup4\n        /* \"#utility.yul\":4121:4137   */\n      add\n        /* \"#utility.yul\":4114:4141   */\n      mstore\n        /* \"#utility.yul\":4000:4148   */\n      pop\n      pop\n      pop\n      jump\t// out\n        /* \"#utility.yul\":4154:4579   */\n    tag_104:\n        /* \"#utility.yul\":4232:4237   */\n      0x00\n        /* \"#utility.yul\":4257:4323   */\n      tag_187\n        /* \"#utility.yul\":4273:4322   */\n      tag_188\n        /* \"#utility.yul\":4315:4321   */\n      dup5\n        /* \"#utility.yul\":4273:4322   */\n      tag_102\n      jump\t// in\n    tag_188:\n        /* \"#utility.yul\":4257:4323   */\n      tag_101\n      jump\t// in\n    tag_187:\n        /* \"#utility.yul\":4248:4323   */\n      swap1\n      pop\n        /* \"#utility.yul\":4346:4352   */\n      dup3\n        /* \"#utility.yul\":4339:4344   */\n      dup2\n        /* \"#utility.yul\":4332:4353   */\n      mstore\n        /* \"#utility.yul\":4384:4388   */\n      0x20\n        /* \"#utility.yul\":4377:4382   */\n      dup2\n        /* \"#utility.yul\":4373:4389   */\n      add\n        /* \"#utility.yul\":4422:4425   */\n      dup5\n        /* \"#utility.yul\":4413:4419   */\n      dup5\n        /* \"#utility.yul\":4408:4411   */\n      dup5\n        /* \"#utility.yul\":4404:4420   */\n      add\n        /* \"#utility.yul\":4401:4426   */\n      gt\n        /* \"#utility.yul\":4398:4510   */\n      iszero\n      tag_189\n      jumpi\n        /* \"#utility.yul\":4429:4508   */\n      tag_190\n      tag_98\n      jump\t// in\n    tag_190:\n        /* \"#utility.yul\":4398:4510   */\n    tag_189:\n        /* \"#utility.yul\":4519:4573   */\n      tag_191\n        /* \"#utility.yul\":4566:4572   */\n      dup5\n        /* \"#utility.yul\":4561:4564   */\n      dup3\n        /* \"#utility.yul\":4556:4559   */\n      dup6\n        /* \"#utility.yul\":4519:4573   */\n      tag_103\n      jump\t// in\n    tag_191:\n        /* \"#utility.yul\":4238:4579   */\n      pop\n        /* \"#utility.yul\":4154:4579   */\n      swap4\n      swap3\n      pop\n      pop\n      pop\n      jump\t// out\n        /* \"#utility.yul\":4599:4939   */\n    tag_105:\n        /* \"#utility.yul\":4655:4660   */\n      0x00\n        /* \"#utility.yul\":4704:4707   */\n      dup3\n        /* \"#utility.yul\":4697:4701   */\n      0x1f\n        /* \"#utility.yul\":4689:4695   */\n      dup4\n        /* \"#utility.yul\":4685:4702   */\n      add\n        /* \"#utility.yul\":4681:4708   */\n      slt\n        /* \"#utility.yul\":4671:4793   */\n      tag_193\n      jumpi\n        /* \"#utility.yul\":4712:4791   */\n      tag_194\n      tag_97\n      jump\t// in\n    tag_194:\n        /* \"#utility.yul\":4671:4793   */\n    tag_193:\n        /* \"#utility.yul\":4829:4835   */\n      dup2\n        /* \"#utility.yul\":4816:4836   */\n      calldataload\n        /* \"#utility.yul\":4854:4933   */\n      tag_195\n        /* \"#utility.yul\":4929:4932   */\n      dup5\n        /* \"#utility.yul\":4921:4927   */\n      dup3\n        /* \"#utility.yul\":4914:4918   */\n      0x20\n        /* \"#utility.yul\":4906:4912   */\n      dup7\n        /* \"#utility.yul\":4902:4919   */\n      add\n        /* \"#utility.yul\":4854:4933   */\n      tag_104\n      jump\t// in\n    tag_195:\n        /* \"#utility.yul\":4845:4933   */\n      swap2\n      pop\n        /* \"#utility.yul\":4661:4939   */\n      pop\n        /* \"#utility.yul\":4599:4939   */\n      swap3\n      swap2\n      pop\n      pop\n      jump\t// out\n        /* \"#utility.yul\":4945:5454   */\n    tag_28:\n        /* \"#utility.yul\":5014:5020   */\n      0x00\n        /* \"#utility.yul\":5063:5065   */\n      0x20\n        /* \"#utility.yul\":5051:5060   */\n      dup3\n        /* \"#utility.yul\":5042:5049   */\n      dup5\n        /* \"#utility.yul\":5038:5061   */\n      sub\n        /* \"#utility.yul\":5034:5066   */\n      slt\n        /* \"#utility.yul\":5031:5150   */\n      iszero\n      tag_197\n      jumpi\n        /* \"#utility.yul\":5069:5148   */\n      tag_198\n      tag_86\n      jump\t// in\n    tag_198:\n        /* \"#utility.yul\":5031:5150   */\n    tag_197:\n        /* \"#utility.yul\":5217:5218   */\n      0x00\n        /* \"#utility.yul\":5206:5215   */\n      dup3\n        /* \"#utility.yul\":5202:5219   */\n      add\n        /* \"#utility.yul\":5189:5220   */\n      calldataload\n        /* \"#utility.yul\":5247:5265   */\n      0xffffffffffffffff\n        /* \"#utility.yul\":5239:5245   */\n      dup2\n        /* \"#utility.yul\":5236:5266   */\n      gt\n        /* \"#utility.yul\":5233:5350   */\n      iszero\n      tag_199\n      jumpi\n        /* \"#utility.yul\":5269:5348   */\n      tag_200\n      tag_87\n      jump\t// in\n    tag_200:\n        /* \"#utility.yul\":5233:5350   */\n    tag_199:\n        /* \"#utility.yul\":5374:5437   */\n      tag_201\n        /* \"#utility.yul\":5429:5436   */\n      dup5\n        /* \"#utility.yul\":5420:5426   */\n      dup3\n        /* \"#utility.yul\":5409:5418   */\n      dup6\n        /* \"#utility.yul\":5405:5427   */\n      add\n        /* \"#utility.yul\":5374:5437   */\n      tag_105\n      jump\t// in\n    tag_201:\n        /* \"#utility.yul\":5364:5437   */\n      swap2\n      pop\n        /* \"#utility.yul\":5160:5447   */\n      pop\n        /* \"#utility.yul\":4945:5454   */\n      swap3\n      swap2\n      pop\n      pop\n      jump\t// out\n        /* \"#utility.yul\":5460:5586   */\n    tag_106:\n        /* \"#utility.yul\":5497:5504   */\n      0x00\n        /* \"#utility.yul\":5537:5579   */\n      0xffffffffffffffffffffffffffffffffffffffff\n        /* \"#utility.yul\":5530:5535   */\n      dup3\n        /* \"#utility.yul\":5526:5580   */\n      and\n        /* \"#utility.yul\":5515:5580   */\n      swap1\n      pop\n        /* \"#utility.yul\":5460:5586   */\n      swap2\n      swap1\n      pop\n      jump\t// out\n        /* \"#utility.yul\":5592:5688   */\n    tag_107:\n        /* \"#utility.yul\":5629:5636   */\n      0x00\n        /* \"#utility.yul\":5658:5682   */\n      tag_204\n        /* \"#utility.yul\":5676:5681   */\n      dup3\n        /* \"#utility.yul\":5658:5682   */\n      tag_106\n      jump\t// in\n    tag_204:\n        /* \"#utility.yul\":5647:5682   */\n      swap1\n      pop\n        /* \"#utility.yul\":5592:5688   */\n      swap2\n      swap1\n      pop\n      jump\t// out\n        /* \"#utility.yul\":5694:5812   */\n    tag_108:\n        /* \"#utility.yul\":5781:5805   */\n      tag_206\n        /* \"#utility.yul\":5799:5804   */\n      dup2\n        /* \"#utility.yul\":5781:5805   */\n      tag_107\n      jump\t// in\n    tag_206:\n        /* \"#utility.yul\":5776:5779   */\n      dup3\n        /* \"#utility.yul\":5769:5806   */\n      mstore\n        /* \"#utility.yul\":5694:5812   */\n      pop\n      pop\n      jump\t// out\n        /* \"#utility.yul\":5818:6040   */\n    tag_33:\n        /* \"#utility.yul\":5911:5915   */\n      0x00\n        /* \"#utility.yul\":5949:5951   */\n      0x20\n        /* \"#utility.yul\":5938:5947   */\n      dup3\n        /* \"#utility.yul\":5934:5952   */\n      add\n        /* \"#utility.yul\":5926:5952   */\n      swap1\n      pop\n        /* \"#utility.yul\":5962:6033   */\n      tag_208\n        /* \"#utility.yul\":6030:6031   */\n      0x00\n        /* \"#utility.yul\":6019:6028   */\n      dup4\n        /* \"#utility.yul\":6015:6032   */\n      add\n        /* \"#utility.yul\":6006:6012   */\n      dup5\n        /* \"#utility.yul\":5962:6033   */\n      tag_108\n      jump\t// in\n    tag_208:\n        /* \"#utility.yul\":5818:6040   */\n      swap3\n      swap2\n      pop\n      pop\n      jump\t// out\n        /* \"#utility.yul\":6046:6168   */\n    tag_109:\n        /* \"#utility.yul\":6119:6143   */\n      tag_210\n        /* \"#utility.yul\":6137:6142   */\n      dup2\n        /* \"#utility.yul\":6119:6143   */\n      tag_107\n      jump\t// in\n    tag_210:\n        /* \"#utility.yul\":6112:6117   */\n      dup2\n        /* \"#utility.yul\":6109:6144   */\n      eq\n        /* \"#utility.yul\":6099:6162   */\n      tag_211\n      jumpi\n        /* \"#utility.yul\":6158:6159   */\n      0x00\n        /* \"#utility.yul\":6155:6156   */\n      dup1\n        /* \"#utility.yul\":6148:6160   */\n      revert\n        /* \"#utility.yul\":6099:6162   */\n    tag_211:\n        /* \"#utility.yul\":6046:6168   */\n      pop\n      jump\t// out\n        /* \"#utility.yul\":6174:6313   */\n    tag_110:\n        /* \"#utility.yul\":6220:6225   */\n      0x00\n        /* \"#utility.yul\":6258:6264   */\n      dup2\n        /* \"#utility.yul\":6245:6265   */\n      calldataload\n        /* \"#utility.yul\":6236:6265   */\n      swap1\n      pop\n        /* \"#utility.yul\":6274:6307   */\n      tag_213\n        /* \"#utility.yul\":6301:6306   */\n      dup2\n        /* \"#utility.yul\":6274:6307   */\n      tag_109\n      jump\t// in\n    tag_213:\n        /* \"#utility.yul\":6174:6313   */\n      swap3\n      swap2\n      pop\n      pop\n      jump\t// out\n        /* \"#utility.yul\":6319:6648   */\n    tag_36:\n        /* \"#utility.yul\":6378:6384   */\n      0x00\n        /* \"#utility.yul\":6427:6429   */\n      0x20\n        /* \"#utility.yul\":6415:6424   */\n      dup3\n        /* \"#utility.yul\":6406:6413   */\n      dup5\n        /* \"#utility.yul\":6402:6425   */\n      sub\n        /* \"#utility.yul\":6398:6430   */\n      slt\n        /* \"#utility.yul\":6395:6514   */\n      iszero\n      tag_215\n      jumpi\n        /* \"#utility.yul\":6433:6512   */\n      tag_216\n      tag_86\n      jump\t// in\n    tag_216:\n        /* \"#utility.yul\":6395:6514   */\n    tag_215:\n        /* \"#utility.yul\":6553:6554   */\n      0x00\n        /* \"#utility.yul\":6578:6631   */\n      tag_217\n        /* \"#utility.yul\":6623:6630   */\n      dup5\n        /* \"#utility.yul\":6614:6620   */\n      dup3\n        /* \"#utility.yul\":6603:6612   */\n      dup6\n        /* \"#utility.yul\":6599:6621   */\n      add\n        /* \"#utility.yul\":6578:6631   */\n      tag_110\n      jump\t// in\n    tag_217:\n        /* \"#utility.yul\":6568:6631   */\n      swap2\n      pop\n        /* \"#utility.yul\":6524:6641   */\n      pop\n        /* \"#utility.yul\":6319:6648   */\n      swap3\n      swap2\n      pop\n      pop\n      jump\t// out\n        /* \"#utility.yul\":6654:6744   */\n    tag_111:\n        /* \"#utility.yul\":6688:6695   */\n      0x00\n        /* \"#utility.yul\":6731:6736   */\n      dup2\n        /* \"#utility.yul\":6724:6737   */\n      iszero\n        /* \"#utility.yul\":6717:6738   */\n      iszero\n        /* \"#utility.yul\":6706:6738   */\n      swap1\n      pop\n        /* \"#utility.yul\":6654:6744   */\n      swap2\n      swap1\n      pop\n      jump\t// out\n        /* \"#utility.yul\":6750:6859   */\n    tag_112:\n        /* \"#utility.yul\":6831:6852   */\n      tag_220\n        /* \"#utility.yul\":6846:6851   */\n      dup2\n        /* \"#utility.yul\":6831:6852   */\n      tag_111\n      jump\t// in\n    tag_220:\n        /* \"#utility.yul\":6826:6829   */\n      dup3\n        /* \"#utility.yul\":6819:6853   */\n      mstore\n        /* \"#utility.yul\":6750:6859   */\n      pop\n      pop\n      jump\t// out\n        /* \"#utility.yul\":6865:7075   */\n    tag_39:\n        /* \"#utility.yul\":6952:6956   */\n      0x00\n        /* \"#utility.yul\":6990:6992   */\n      0x20\n        /* \"#utility.yul\":6979:6988   */\n      dup3\n        /* \"#utility.yul\":6975:6993   */\n      add\n        /* \"#utility.yul\":6967:6993   */\n      swap1\n      pop\n        /* \"#utility.yul\":7003:7068   */\n      tag_222\n        /* \"#utility.yul\":7065:7066   */\n      0x00\n        /* \"#utility.yul\":7054:7063   */\n      dup4\n        /* \"#utility.yul\":7050:7067   */\n      add\n        /* \"#utility.yul\":7041:7047   */\n      dup5\n        /* \"#utility.yul\":7003:7068   */\n      tag_112\n      jump\t// in\n    tag_222:\n        /* \"#utility.yul\":6865:7075   */\n      swap3\n      swap2\n      pop\n      pop\n      jump\t// out\n        /* \"#utility.yul\":7081:7250   */\n    tag_113:\n        /* \"#utility.yul\":7221:7242   */\n      0x566f7573206176657a2064656a6120766f746500000000000000000000000000\n        /* \"#utility.yul\":7217:7218   */\n      0x00\n        /* \"#utility.yul\":7209:7215   */\n      dup3\n        /* \"#utility.yul\":7205:7219   */\n      add\n        /* \"#utility.yul\":7198:7243   */\n      mstore\n        /* \"#utility.yul\":7081:7250   */\n      pop\n      jump\t// out\n        /* \"#utility.yul\":7256:7622   */\n    tag_114:\n        /* \"#utility.yul\":7398:7401   */\n      0x00\n        /* \"#utility.yul\":7419:7486   */\n      tag_225\n        /* \"#utility.yul\":7483:7485   */\n      0x13\n        /* \"#utility.yul\":7478:7481   */\n      dup4\n        /* \"#utility.yul\":7419:7486   */\n      tag_93\n      jump\t// in\n    tag_225:\n        /* \"#utility.yul\":7412:7486   */\n      swap2\n      pop\n        /* \"#utility.yul\":7495:7588   */\n      tag_226\n        /* \"#utility.yul\":7584:7587   */\n      dup3\n        /* \"#utility.yul\":7495:7588   */\n      tag_113\n      jump\t// in\n    tag_226:\n        /* \"#utility.yul\":7613:7615   */\n      0x20\n        /* \"#utility.yul\":7608:7611   */\n      dup3\n        /* \"#utility.yul\":7604:7616   */\n      add\n        /* \"#utility.yul\":7597:7616   */\n      swap1\n      pop\n        /* \"#utility.yul\":7256:7622   */\n      swap2\n      swap1\n      pop\n      jump\t// out\n        /* \"#utility.yul\":7628:8047   */\n    tag_53:\n        /* \"#utility.yul\":7794:7798   */\n      0x00\n        /* \"#utility.yul\":7832:7834   */\n      0x20\n        /* \"#utility.yul\":7821:7830   */\n      dup3\n        /* \"#utility.yul\":7817:7835   */\n      add\n        /* \"#utility.yul\":7809:7835   */\n      swap1\n      pop\n        /* \"#utility.yul\":7881:7890   */\n      dup2\n        /* \"#utility.yul\":7875:7879   */\n      dup2\n        /* \"#utility.yul\":7871:7891   */\n      sub\n        /* \"#utility.yul\":7867:7868   */\n      0x00\n        /* \"#utility.yul\":7856:7865   */\n      dup4\n        /* \"#utility.yul\":7852:7869   */\n      add\n        /* \"#utility.yul\":7845:7892   */\n      mstore\n        /* \"#utility.yul\":7909:8040   */\n      tag_228\n        /* \"#utility.yul\":8035:8039   */\n      dup2\n        /* \"#utility.yul\":7909:8040   */\n      tag_114\n      jump\t// in\n    tag_228:\n        /* \"#utility.yul\":7901:8040   */\n      swap1\n      pop\n        /* \"#utility.yul\":7628:8047   */\n      swap2\n      swap1\n      pop\n      jump\t// out\n        /* \"#utility.yul\":8053:8220   */\n    tag_115:\n        /* \"#utility.yul\":8193:8212   */\n      0x43616e646964617420696e76616c696465000000000000000000000000000000\n        /* \"#utility.yul\":8189:8190   */\n      0x00\n        /* \"#utility.yul\":8181:8187   */\n      dup3\n        /* \"#utility.yul\":8177:8191   */\n      add\n        /* \"#utility.yul\":8170:8213   */\n      mstore\n        /* \"#utility.yul\":8053:8220   */\n      pop\n      jump\t// out\n        /* \"#utility.yul\":8226:8592   */\n    tag_116:\n        /* \"#utility.yul\":8368:8371   */\n      0x00\n        /* \"#utility.yul\":8389:8456   */\n      tag_231\n        /* \"#utility.yul\":8453:8455   */\n      0x11\n        /* \"#utility.yul\":8448:8451   */\n      dup4\n        /* \"#utility.yul\":8389:8456   */\n      tag_93\n      jump\t// in\n    tag_231:\n        /* \"#utility.yul\":8382:8456   */\n      swap2\n      pop\n        /* \"#utility.yul\":8465:8558   */\n      tag_232\n        /* \"#utility.yul\":8554:8557   */\n      dup3\n        /* \"#utility.yul\":8465:8558   */\n      tag_115\n      jump\t// in\n    tag_232:\n        /* \"#utility.yul\":8583:8585   */\n      0x20\n        /* \"#utility.yul\":8578:8581   */\n      dup3\n        /* \"#utility.yul\":8574:8586   */\n      add\n        /* \"#utility.yul\":8567:8586   */\n      swap1\n      pop\n        /* \"#utility.yul\":8226:8592   */\n      swap2\n      swap1\n      pop\n      jump\t// out\n        /* \"#utility.yul\":8598:9017   */\n    tag_57:\n        /* \"#utility.yul\":8764:8768   */\n      0x00\n        /* \"#utility.yul\":8802:8804   */\n      0x20\n        /* \"#utility.yul\":8791:8800   */\n      dup3\n        /* \"#utility.yul\":8787:8805   */\n      add\n        /* \"#utility.yul\":8779:8805   */\n      swap1\n      pop\n        /* \"#utility.yul\":8851:8860   */\n      dup2\n        /* \"#utility.yul\":8845:8849   */\n      dup2\n        /* \"#utility.yul\":8841:8861   */\n      sub\n        /* \"#utility.yul\":8837:8838   */\n      0x00\n        /* \"#utility.yul\":8826:8835   */\n      dup4\n        /* \"#utility.yul\":8822:8839   */\n      add\n        /* \"#utility.yul\":8815:8862   */\n      mstore\n        /* \"#utility.yul\":8879:9010   */\n      tag_234\n        /* \"#utility.yul\":9005:9009   */\n      dup2\n        /* \"#utility.yul\":8879:9010   */\n      tag_116\n      jump\t// in\n    tag_234:\n        /* \"#utility.yul\":8871:9010   */\n      swap1\n      pop\n        /* \"#utility.yul\":8598:9017   */\n      swap2\n      swap1\n      pop\n      jump\t// out\n        /* \"#utility.yul\":9023:9203   */\n    tag_117:\n        /* \"#utility.yul\":9071:9148   */\n      0x4e487b7100000000000000000000000000000000000000000000000000000000\n        /* \"#utility.yul\":9068:9069   */\n      0x00\n        /* \"#utility.yul\":9061:9149   */\n      mstore\n        /* \"#utility.yul\":9168:9172   */\n      0x11\n        /* \"#utility.yul\":9165:9166   */\n      0x04\n        /* \"#utility.yul\":9158:9173   */\n      mstore\n        /* \"#utility.yul\":9192:9196   */\n      0x24\n        /* \"#utility.yul\":9189:9190   */\n      0x00\n        /* \"#utility.yul\":9182:9197   */\n      revert\n        /* \"#utility.yul\":9209:9442   */\n    tag_59:\n        /* \"#utility.yul\":9248:9251   */\n      0x00\n        /* \"#utility.yul\":9271:9295   */\n      tag_237\n        /* \"#utility.yul\":9289:9294   */\n      dup3\n        /* \"#utility.yul\":9271:9295   */\n      tag_88\n      jump\t// in\n    tag_237:\n        /* \"#utility.yul\":9262:9295   */\n      swap2\n      pop\n        /* \"#utility.yul\":9317:9383   */\n      0xffffffffffffffffffffffffffffffffffffffffffffffffffffffffffffffff\n        /* \"#utility.yul\":9310:9315   */\n      dup3\n        /* \"#utility.yul\":9307:9384   */\n      sub\n        /* \"#utility.yul\":9304:9407   */\n      tag_238\n      jumpi\n        /* \"#utility.yul\":9387:9405   */\n      tag_239\n      tag_117\n      jump\t// in\n    tag_239:\n        /* \"#utility.yul\":9304:9407   */\n    tag_238:\n        /* \"#utility.yul\":9434:9435   */\n      0x01\n        /* \"#utility.yul\":9427:9432   */\n      dup3\n        /* \"#utility.yul\":9423:9436   */\n      add\n        /* \"#utility.yul\":9416:9436   */\n      swap1\n      pop\n        /* \"#utility.yul\":9209:9442   */\n      swap2\n      swap1\n      pop\n      jump\t// out\n        /* \"#utility.yul\":9448:9628   */\n    tag_118:\n        /* \"#utility.yul\":9496:9573   */\n      0x4e487b7100000000000000000000000000000000000000000000000000000000\n        /* \"#utility.yul\":9493:9494   */\n      0x00\n        /* \"#utility.yul\":9486:9574   */\n      mstore\n        /* \"#utility.yul\":9593:9597   */\n      0x22\n        /* \"#utility.yul\":9590:9591   */\n      0x04\n        /* \"#utility.yul\":9583:9598   */\n      mstore\n        /* \"#utility.yul\":9617:9621   */\n      0x24\n        /* \"#utility.yul\":9614:9615   */\n      0x00\n        /* \"#utility.yul\":9607:9622   */\n      revert\n        /* \"#utility.yul\":9634:9954   */\n    tag_61:\n        /* \"#utility.yul\":9678:9684   */\n      0x00\n        /* \"#utility.yul\":9715:9716   */\n      0x02\n        /* \"#utility.yul\":9709:9713   */\n      dup3\n        /* \"#utility.yul\":9705:9717   */\n      div\n        /* \"#utility.yul\":9695:9717   */\n      swap1\n      pop\n        /* \"#utility.yul\":9762:9763   */\n      0x01\n        /* \"#utility.yul\":9756:9760   */\n      dup3\n        /* \"#utility.yul\":9752:9764   */\n      and\n        /* \"#utility.yul\":9783:9801   */\n      dup1\n        /* \"#utility.yul\":9773:9854   */\n      tag_242\n      jumpi\n        /* \"#utility.yul\":9839:9843   */\n      0x7f\n        /* \"#utility.yul\":9831:9837   */\n      dup3\n        /* \"#utility.yul\":9827:9844   */\n      and\n        /* \"#utility.yul\":9817:9844   */\n      swap2\n      pop\n        /* \"#utility.yul\":9773:9854   */\n    tag_242:\n        /* \"#utility.yul\":9901:9903   */\n      0x20\n        /* \"#utility.yul\":9893:9899   */\n      dup3\n        /* \"#utility.yul\":9890:9904   */\n      lt\n        /* \"#utility.yul\":9870:9888   */\n      dup2\n        /* \"#utility.yul\":9867:9905   */\n      sub\n        /* \"#utility.yul\":9864:9948   */\n      tag_243\n      jumpi\n        /* \"#utility.yul\":9920:9938   */\n      tag_244\n      tag_118\n      jump\t// in\n    tag_244:\n        /* \"#utility.yul\":9864:9948   */\n    tag_243:\n        /* \"#utility.yul\":9685:9954   */\n      pop\n        /* \"#utility.yul\":9634:9954   */\n      swap2\n      swap1\n      pop\n      jump\t// out\n        /* \"#utility.yul\":9960:10190   */\n    tag_119:\n        /* \"#utility.yul\":10100:10134   */\n      0x41647265737365206e6f6e206175746f7269736565206120616a6f7574657220\n        /* \"#utility.yul\":10096:10097   */\n      0x00\n        /* \"#utility.yul\":10088:10094   */\n      dup3\n        /* \"#utility.yul\":10084:10098   */\n      add\n        /* \"#utility.yul\":10077:10135   */\n      mstore\n        /* \"#utility.yul\":10169:10182   */\n      0x756e2063616e6469646174000000000000000000000000000000000000000000\n        /* \"#utility.yul\":10164:10166   */\n      0x20\n        /* \"#utility.yul\":10156:10162   */\n      dup3\n        /* \"#utility.yul\":10152:10167   */\n      add\n        /* \"#utility.yul\":10145:10183   */\n      mstore\n        /* \"#utility.yul\":9960:10190   */\n      pop\n      jump\t// out\n        /* \"#utility.yul\":10196:10562   */\n    tag_120:\n        /* \"#utility.yul\":10338:10341   */\n      0x00\n        /* \"#utility.yul\":10359:10426   */\n      tag_247\n        /* \"#utility.yul\":10423:10425   */\n      0x2b\n        /* \"#utility.yul\":10418:10421   */\n      dup4\n        /* \"#utility.yul\":10359:10426   */\n      tag_93\n      jump\t// in\n    tag_247:\n        /* \"#utility.yul\":10352:10426   */\n      swap2\n      pop\n        /* \"#utility.yul\":10435:10528   */\n      tag_248\n        /* \"#utility.yul\":10524:10527   */\n      dup3\n        /* \"#utility.yul\":10435:10528   */\n      tag_119\n      jump\t// in\n    tag_248:\n        /* \"#utility.yul\":10553:10555   */\n      0x40\n        /* \"#utility.yul\":10548:10551   */\n      dup3\n        /* \"#utility.yul\":10544:10556   */\n      add\n        /* \"#utility.yul\":10537:10556   */\n      swap1\n      pop\n        /* \"#utility.yul\":10196:10562   */\n      swap2\n      swap1\n      pop\n      jump\t// out\n        /* \"#utility.yul\":10568:10987   */\n    tag_69:\n        /* \"#utility.yul\":10734:10738   */\n      0x00\n        /* \"#utility.yul\":10772:10774   */\n      0x20\n        /* \"#utility.yul\":10761:10770   */\n      dup3\n        /* \"#utility.yul\":10757:10775   */\n      add\n        /* \"#utility.yul\":10749:10775   */\n      swap1\n      pop\n        /* \"#utility.yul\":10821:10830   */\n      dup2\n        /* \"#utility.yul\":10815:10819   */\n      dup2\n        /* \"#utility.yul\":10811:10831   */\n      sub\n        /* \"#utility.yul\":10807:10808   */\n      0x00\n        /* \"#utility.yul\":10796:10805   */\n      dup4\n        /* \"#utility.yul\":10792:10809   */\n      add\n        /* \"#utility.yul\":10785:10832   */\n      mstore\n        /* \"#utility.yul\":10849:10980   */\n      tag_250\n        /* \"#utility.yul\":10975:10979   */\n      dup2\n        /* \"#utility.yul\":10849:10980   */\n      tag_120\n      jump\t// in\n    tag_250:\n        /* \"#utility.yul\":10841:10980   */\n      swap1\n      pop\n        /* \"#utility.yul\":10568:10987   */\n      swap2\n      swap1\n      pop\n      jump\t// out\n        /* \"#utility.yul\":10993:11134   */\n    tag_121:\n        /* \"#utility.yul\":11042:11046   */\n      0x00\n        /* \"#utility.yul\":11065:11068   */\n      dup2\n        /* \"#utility.yul\":11057:11068   */\n      swap1\n      pop\n        /* \"#utility.yul\":11088:11091   */\n      dup2\n        /* \"#utility.yul\":11085:11086   */\n      0x00\n        /* \"#utility.yul\":11078:11092   */\n      mstore\n        /* \"#utility.yul\":11122:11126   */\n      0x20\n        /* \"#utility.yul\":11119:11120   */\n      0x00\n        /* \"#utility.yul\":11109:11127   */\n      keccak256\n        /* \"#utility.yul\":11101:11127   */\n      swap1\n      pop\n        /* \"#utility.yul\":10993:11134   */\n      swap2\n      swap1\n      pop\n      jump\t// out\n        /* \"#utility.yul\":11140:11233   */\n    tag_122:\n        /* \"#utility.yul\":11177:11183   */\n      0x00\n        /* \"#utility.yul\":11224:11226   */\n      0x20\n        /* \"#utility.yul\":11219:11221   */\n      0x1f\n        /* \"#utility.yul\":11212:11217   */\n      dup4\n        /* \"#utility.yul\":11208:11222   */\n      add\n        /* \"#utility.yul\":11204:11227   */\n      div\n        /* \"#utility.yul\":11194:11227   */\n      swap1\n      pop\n        /* \"#utility.yul\":11140:11233   */\n      swap2\n      swap1\n      pop\n      jump\t// out\n        /* \"#utility.yul\":11239:11346   */\n    tag_123:\n        /* \"#utility.yul\":11283:11291   */\n      0x00\n        /* \"#utility.yul\":11333:11338   */\n      dup3\n        /* \"#utility.yul\":11327:11331   */\n      dup3\n        /* \"#utility.yul\":11323:11339   */\n      shl\n        /* \"#utility.yul\":11302:11339   */\n      swap1\n      pop\n        /* \"#utility.yul\":11239:11346   */\n      swap3\n      swap2\n      pop\n      pop\n      jump\t// out\n        /* \"#utility.yul\":11352:11745   */\n    tag_124:\n        /* \"#utility.yul\":11421:11427   */\n      0x00\n        /* \"#utility.yul\":11471:11472   */\n      0x08\n        /* \"#utility.yul\":11459:11469   */\n      dup4\n        /* \"#utility.yul\":11455:11473   */\n      mul\n        /* \"#utility.yul\":11494:11591   */\n      tag_255\n        /* \"#utility.yul\":11524:11590   */\n      0xffffffffffffffffffffffffffffffffffffffffffffffffffffffffffffffff\n        /* \"#utility.yul\":11513:11522   */\n      dup3\n        /* \"#utility.yul\":11494:11591   */\n      tag_123\n      jump\t// in\n    tag_255:\n        /* \"#utility.yul\":11612:11651   */\n      tag_256\n        /* \"#utility.yul\":11642:11650   */\n      dup7\n        /* \"#utility.yul\":11631:11640   */\n      dup4\n        /* \"#utility.yul\":11612:11651   */\n      tag_123\n      jump\t// in\n    tag_256:\n        /* \"#utility.yul\":11600:11651   */\n      swap6\n      pop\n        /* \"#utility.yul\":11684:11688   */\n      dup1\n        /* \"#utility.yul\":11680:11689   */\n      not\n        /* \"#utility.yul\":11673:11678   */\n      dup5\n        /* \"#utility.yul\":11669:11690   */\n      and\n        /* \"#utility.yul\":11660:11690   */\n      swap4\n      pop\n        /* \"#utility.yul\":11733:11737   */\n      dup1\n        /* \"#utility.yul\":11723:11731   */\n      dup7\n        /* \"#utility.yul\":11719:11738   */\n      and\n        /* \"#utility.yul\":11712:11717   */\n      dup5\n        /* \"#utility.yul\":11709:11739   */\n      or\n        /* \"#utility.yul\":11699:11739   */\n      swap3\n      pop\n        /* \"#utility.yul\":11428:11745   */\n      pop\n      pop\n        /* \"#utility.yul\":11352:11745   */\n      swap4\n      swap3\n      pop\n      pop\n      pop\n      jump\t// out\n        /* \"#utility.yul\":11751:11811   */\n    tag_125:\n        /* \"#utility.yul\":11779:11782   */\n      0x00\n        /* \"#utility.yul\":11800:11805   */\n      dup2\n        /* \"#utility.yul\":11793:11805   */\n      swap1\n      pop\n        /* \"#utility.yul\":11751:11811   */\n      swap2\n      swap1\n      pop\n      jump\t// out\n        /* \"#utility.yul\":11817:11959   */\n    tag_126:\n        /* \"#utility.yul\":11867:11876   */\n      0x00\n        /* \"#utility.yul\":11900:11953   */\n      tag_259\n        /* \"#utility.yul\":11918:11952   */\n      tag_260\n        /* \"#utility.yul\":11927:11951   */\n      tag_261\n        /* \"#utility.yul\":11945:11950   */\n      dup5\n        /* \"#utility.yul\":11927:11951   */\n      tag_88\n      jump\t// in\n    tag_261:\n        /* \"#utility.yul\":11918:11952   */\n      tag_125\n      jump\t// in\n    tag_260:\n        /* \"#utility.yul\":11900:11953   */\n      tag_88\n      jump\t// in\n    tag_259:\n        /* \"#utility.yul\":11887:11953   */\n      swap1\n      pop\n        /* \"#utility.yul\":11817:11959   */\n      swap2\n      swap1\n      pop\n      jump\t// out\n        /* \"#utility.yul\":11965:12040   */\n    tag_127:\n        /* \"#utility.yul\":12008:12011   */\n      0x00\n        /* \"#utility.yul\":12029:12034   */\n      dup2\n        /* \"#utility.yul\":12022:12034   */\n      swap1\n      pop\n        /* \"#utility.yul\":11965:12040   */\n      swap2\n      swap1\n      pop\n      jump\t// out\n        /* \"#utility.yul\":12046:12315   */\n    tag_128:\n        /* \"#utility.yul\":12156:12195   */\n      tag_264\n        /* \"#utility.yul\":12187:12194   */\n      dup4\n        /* \"#utility.yul\":12156:12195   */\n      tag_126\n      jump\t// in\n    tag_264:\n        /* \"#utility.yul\":12217:12308   */\n      tag_265\n        /* \"#utility.yul\":12266:12307   */\n      tag_266\n        /* \"#utility.yul\":12290:12306   */\n      dup3\n        /* \"#utility.yul\":12266:12307   */\n      tag_127\n      jump\t// in\n    tag_266:\n        /* \"#utility.yul\":12258:12264   */\n      dup5\n        /* \"#utility.yul\":12251:12255   */\n      dup5\n        /* \"#utility.yul\":12245:12256   */\n      sload\n        /* \"#utility.yul\":12217:12308   */\n      tag_124\n      jump\t// in\n    tag_265:\n        /* \"#utility.yul\":12211:12215   */\n      dup3\n        /* \"#utility.yul\":12204:12309   */\n      sstore\n        /* \"#utility.yul\":12122:12315   */\n      pop\n        /* \"#utility.yul\":12046:12315   */\n      pop\n      pop\n      pop\n      jump\t// out\n        /* \"#utility.yul\":12321:12394   */\n    tag_129:\n        /* \"#utility.yul\":12366:12369   */\n      0x00\n        /* \"#utility.yul\":12321:12394   */\n      swap1\n      jump\t// out\n        /* \"#utility.yul\":12400:12589   */\n    tag_130:\n        /* \"#utility.yul\":12477:12509   */\n      tag_269\n      tag_129\n      jump\t// in\n    tag_269:\n        /* \"#utility.yul\":12518:12583   */\n      tag_270\n        /* \"#utility.yul\":12576:12582   */\n      dup2\n        /* \"#utility.yul\":12568:12574   */\n      dup5\n        /* \"#utility.yul\":12562:12566   */\n      dup5\n        /* \"#utility.yul\":12518:12583   */\n      tag_128\n      jump\t// in\n    tag_270:\n        /* \"#utility.yul\":12453:12589   */\n      pop\n        /* \"#utility.yul\":12400:12589   */\n      pop\n      pop\n      jump\t// out\n        /* \"#utility.yul\":12595:12781   */\n    tag_131:\n        /* \"#utility.yul\":12655:12775   */\n    tag_272:\n        /* \"#utility.yul\":12672:12675   */\n      dup2\n        /* \"#utility.yul\":12665:12670   */\n      dup2\n        /* \"#utility.yul\":12662:12676   */\n      lt\n        /* \"#utility.yul\":12655:12775   */\n      iszero\n      tag_274\n      jumpi\n        /* \"#utility.yul\":12726:12765   */\n      tag_275\n        /* \"#utility.yul\":12763:12764   */\n      0x00\n        /* \"#utility.yul\":12756:12761   */\n      dup3\n        /* \"#utility.yul\":12726:12765   */\n      tag_130\n      jump\t// in\n    tag_275:\n        /* \"#utility.yul\":12699:12700   */\n      0x01\n        /* \"#utility.yul\":12692:12697   */\n      dup2\n        /* \"#utility.yul\":12688:12701   */\n      add\n        /* \"#utility.yul\":12679:12701   */\n      swap1\n      pop\n        /* \"#utility.yul\":12655:12775   */\n      jump(tag_272)\n    tag_274:\n        /* \"#utility.yul\":12595:12781   */\n      pop\n      pop\n      jump\t// out\n        /* \"#utility.yul\":12787:13330   */\n    tag_132:\n        /* \"#utility.yul\":12888:12890   */\n      0x1f\n        /* \"#utility.yul\":12883:12886   */\n      dup3\n        /* \"#utility.yul\":12880:12891   */\n      gt\n        /* \"#utility.yul\":12877:13323   */\n      iszero\n      tag_277\n      jumpi\n        /* \"#utility.yul\":12922:12960   */\n      tag_278\n        /* \"#utility.yul\":12954:12959   */\n      dup2\n        /* \"#utility.yul\":12922:12960   */\n      tag_121\n      jump\t// in\n    tag_278:\n        /* \"#utility.yul\":13006:13035   */\n      tag_279\n        /* \"#utility.yul\":13024:13034   */\n      dup5\n        /* \"#utility.yul\":13006:13035   */\n      tag_122\n      jump\t// in\n    tag_279:\n        /* \"#utility.yul\":12996:13004   */\n      dup2\n        /* \"#utility.yul\":12992:13036   */\n      add\n        /* \"#utility.yul\":13189:13191   */\n      0x20\n        /* \"#utility.yul\":13177:13187   */\n      dup6\n        /* \"#utility.yul\":13174:13192   */\n      lt\n        /* \"#utility.yul\":13171:13220   */\n      iszero\n      tag_280\n      jumpi\n        /* \"#utility.yul\":13210:13218   */\n      dup2\n        /* \"#utility.yul\":13195:13218   */\n      swap1\n      pop\n        /* \"#utility.yul\":13171:13220   */\n    tag_280:\n        /* \"#utility.yul\":13233:13313   */\n      tag_281\n        /* \"#utility.yul\":13289:13311   */\n      tag_282\n        /* \"#utility.yul\":13307:13310   */\n      dup6\n        /* \"#utility.yul\":13289:13311   */\n      tag_122\n      jump\t// in\n    tag_282:\n        /* \"#utility.yul\":13279:13287   */\n      dup4\n        /* \"#utility.yul\":13275:13312   */\n      add\n        /* \"#utility.yul\":13262:13273   */\n      dup3\n        /* \"#utility.yul\":13233:13313   */\n      tag_131\n      jump\t// in\n    tag_281:\n        /* \"#utility.yul\":12892:13323   */\n      pop\n      pop\n        /* \"#utility.yul\":12877:13323   */\n    tag_277:\n        /* \"#utility.yul\":12787:13330   */\n      pop\n      pop\n      pop\n      jump\t// out\n        /* \"#utility.yul\":13336:13453   */\n    tag_133:\n        /* \"#utility.yul\":13390:13398   */\n      0x00\n        /* \"#utility.yul\":13440:13445   */\n      dup3\n        /* \"#utility.yul\":13434:13438   */\n      dup3\n        /* \"#utility.yul\":13430:13446   */\n      shr\n        /* \"#utility.yul\":13409:13446   */\n      swap1\n      pop\n        /* \"#utility.yul\":13336:13453   */\n      swap3\n      swap2\n      pop\n      pop\n      jump\t// out\n        /* \"#utility.yul\":13459:13628   */\n    tag_134:\n        /* \"#utility.yul\":13503:13509   */\n      0x00\n        /* \"#utility.yul\":13536:13587   */\n      tag_285\n        /* \"#utility.yul\":13584:13585   */\n      0x00\n        /* \"#utility.yul\":13580:13586   */\n      not\n        /* \"#utility.yul\":13572:13577   */\n      dup5\n        /* \"#utility.yul\":13569:13570   */\n      0x08\n        /* \"#utility.yul\":13565:13578   */\n      mul\n        /* \"#utility.yul\":13536:13587   */\n      tag_133\n      jump\t// in\n    tag_285:\n        /* \"#utility.yul\":13532:13588   */\n      not\n        /* \"#utility.yul\":13617:13621   */\n      dup1\n        /* \"#utility.yul\":13611:13615   */\n      dup4\n        /* \"#utility.yul\":13607:13622   */\n      and\n        /* \"#utility.yul\":13597:13622   */\n      swap2\n      pop\n        /* \"#utility.yul\":13510:13628   */\n      pop\n        /* \"#utility.yul\":13459:13628   */\n      swap3\n      swap2\n      pop\n      pop\n      jump\t// out\n        /* \"#utility.yul\":13633:13928   */\n    tag_135:\n        /* \"#utility.yul\":13709:13713   */\n      0x00\n        /* \"#utility.yul\":13855:13884   */\n      tag_287\n        /* \"#utility.yul\":13880:13883   */\n      dup4\n        /* \"#utility.yul\":13874:13878   */\n      dup4\n        /* \"#utility.yul\":13855:13884   */\n      tag_134\n      jump\t// in\n    tag_287:\n        /* \"#utility.yul\":13847:13884   */\n      swap2\n      pop\n        /* \"#utility.yul\":13917:13920   */\n      dup3\n        /* \"#utility.yul\":13914:13915   */\n      0x02\n        /* \"#utility.yul\":13910:13921   */\n      mul\n        /* \"#utility.yul\":13904:13908   */\n      dup3\n        /* \"#utility.yul\":13901:13922   */\n      or\n        /* \"#utility.yul\":13893:13922   */\n      swap1\n      pop\n        /* \"#utility.yul\":13633:13928   */\n      swap3\n      swap2\n      pop\n      pop\n      jump\t// out\n        /* \"#utility.yul\":13933:15328   */\n    tag_72:\n        /* \"#utility.yul\":14050:14087   */\n      tag_289\n        /* \"#utility.yul\":14083:14086   */\n      dup3\n        /* \"#utility.yul\":14050:14087   */\n      tag_92\n      jump\t// in\n    tag_289:\n        /* \"#utility.yul\":14152:14170   */\n      0xffffffffffffffff\n        /* \"#utility.yul\":14144:14150   */\n      dup2\n        /* \"#utility.yul\":14141:14171   */\n      gt\n        /* \"#utility.yul\":14138:14194   */\n      iszero\n      tag_290\n      jumpi\n        /* \"#utility.yul\":14174:14192   */\n      tag_291\n      tag_99\n      jump\t// in\n    tag_291:\n        /* \"#utility.yul\":14138:14194   */\n    tag_290:\n        /* \"#utility.yul\":14218:14256   */\n      tag_292\n        /* \"#utility.yul\":14250:14254   */\n      dup3\n        /* \"#utility.yul\":14244:14255   */\n      sload\n        /* \"#utility.yul\":14218:14256   */\n      tag_61\n      jump\t// in\n    tag_292:\n        /* \"#utility.yul\":14303:14370   */\n      tag_293\n        /* \"#utility.yul\":14363:14369   */\n      dup3\n        /* \"#utility.yul\":14355:14361   */\n      dup3\n        /* \"#utility.yul\":14349:14353   */\n      dup6\n        /* \"#utility.yul\":14303:14370   */\n      tag_132\n      jump\t// in\n    tag_293:\n        /* \"#utility.yul\":14397:14398   */\n      0x00\n        /* \"#utility.yul\":14421:14425   */\n      0x20\n        /* \"#utility.yul\":14408:14425   */\n      swap1\n      pop\n        /* \"#utility.yul\":14453:14455   */\n      0x1f\n        /* \"#utility.yul\":14445:14451   */\n      dup4\n        /* \"#utility.yul\":14442:14456   */\n      gt\n        /* \"#utility.yul\":14470:14471   */\n      0x01\n        /* \"#utility.yul\":14465:15083   */\n      dup2\n      eq\n      tag_295\n      jumpi\n        /* \"#utility.yul\":15127:15128   */\n      0x00\n        /* \"#utility.yul\":15144:15150   */\n      dup5\n        /* \"#utility.yul\":15141:15218   */\n      iszero\n      tag_296\n      jumpi\n        /* \"#utility.yul\":15193:15202   */\n      dup3\n        /* \"#utility.yul\":15188:15191   */\n      dup8\n        /* \"#utility.yul\":15184:15203   */\n      add\n        /* \"#utility.yul\":15178:15204   */\n      mload\n        /* \"#utility.yul\":15169:15204   */\n      swap1\n      pop\n        /* \"#utility.yul\":15141:15218   */\n    tag_296:\n        /* \"#utility.yul\":15244:15311   */\n      tag_297\n        /* \"#utility.yul\":15304:15310   */\n      dup6\n        /* \"#utility.yul\":15297:15302   */\n      dup3\n        /* \"#utility.yul\":15244:15311   */\n      tag_135\n      jump\t// in\n    tag_297:\n        /* \"#utility.yul\":15238:15242   */\n      dup7\n        /* \"#utility.yul\":15231:15312   */\n      sstore\n        /* \"#utility.yul\":15100:15322   */\n      pop\n        /* \"#utility.yul\":14435:15322   */\n      jump(tag_294)\n        /* \"#utility.yul\":14465:15083   */\n    tag_295:\n        /* \"#utility.yul\":14517:14521   */\n      0x1f\n        /* \"#utility.yul\":14513:14522   */\n      not\n        /* \"#utility.yul\":14505:14511   */\n      dup5\n        /* \"#utility.yul\":14501:14523   */\n      and\n        /* \"#utility.yul\":14551:14588   */\n      tag_298\n        /* \"#utility.yul\":14583:14587   */\n      dup7\n        /* \"#utility.yul\":14551:14588   */\n      tag_121\n      jump\t// in\n    tag_298:\n        /* \"#utility.yul\":14610:14611   */\n      0x00\n        /* \"#utility.yul\":14624:14832   */\n    tag_299:\n        /* \"#utility.yul\":14638:14645   */\n      dup3\n        /* \"#utility.yul\":14635:14636   */\n      dup2\n        /* \"#utility.yul\":14632:14646   */\n      lt\n        /* \"#utility.yul\":14624:14832   */\n      iszero\n      tag_301\n      jumpi\n        /* \"#utility.yul\":14717:14726   */\n      dup5\n        /* \"#utility.yul\":14712:14715   */\n      dup10\n        /* \"#utility.yul\":14708:14727   */\n      add\n        /* \"#utility.yul\":14702:14728   */\n      mload\n        /* \"#utility.yul\":14694:14700   */\n      dup3\n        /* \"#utility.yul\":14687:14729   */\n      sstore\n        /* \"#utility.yul\":14768:14769   */\n      0x01\n        /* \"#utility.yul\":14760:14766   */\n      dup3\n        /* \"#utility.yul\":14756:14770   */\n      add\n        /* \"#utility.yul\":14746:14770   */\n      swap2\n      pop\n        /* \"#utility.yul\":14815:14817   */\n      0x20\n        /* \"#utility.yul\":14804:14813   */\n      dup6\n        /* \"#utility.yul\":14800:14818   */\n      add\n        /* \"#utility.yul\":14787:14818   */\n      swap5\n      pop\n        /* \"#utility.yul\":14661:14665   */\n      0x20\n        /* \"#utility.yul\":14658:14659   */\n      dup2\n        /* \"#utility.yul\":14654:14666   */\n      add\n        /* \"#utility.yul\":14649:14666   */\n      swap1\n      pop\n        /* \"#utility.yul\":14624:14832   */\n      jump(tag_299)\n    tag_301:\n        /* \"#utility.yul\":14860:14866   */\n      dup7\n        /* \"#utility.yul\":14851:14858   */\n      dup4\n        /* \"#utility.yul\":14848:14867   */\n      lt\n        /* \"#utility.yul\":14845:15024   */\n      iszero\n      tag_302\n      jumpi\n        /* \"#utility.yul\":14918:14927   */\n      dup5\n        /* \"#utility.yul\":14913:14916   */\n      dup10\n        /* \"#utility.yul\":14909:14928   */\n      add\n        /* \"#utility.yul\":14903:14929   */\n      mload\n        /* \"#utility.yul\":14961:15009   */\n      tag_303\n        /* \"#utility.yul\":15003:15007   */\n      0x1f\n        /* \"#utility.yul\":14995:15001   */\n      dup10\n        /* \"#utility.yul\":14991:15008   */\n      and\n        /* \"#utility.yul\":14980:14989   */\n      dup3\n        /* \"#utility.yul\":14961:15009   */\n      tag_134\n      jump\t// in\n    tag_303:\n        /* \"#utility.yul\":14953:14959   */\n      dup4\n        /* \"#utility.yul\":14946:15010   */\n      sstore\n        /* \"#utility.yul\":14868:15024   */\n      pop\n        /* \"#utility.yul\":14845:15024   */\n    tag_302:\n        /* \"#utility.yul\":15070:15071   */\n      0x01\n        /* \"#utility.yul\":15066:15067   */\n      0x02\n        /* \"#utility.yul\":15058:15064   */\n      dup9\n        /* \"#utility.yul\":15054:15068   */\n      mul\n        /* \"#utility.yul\":15050:15072   */\n      add\n        /* \"#utility.yul\":15044:15048   */\n      dup9\n        /* \"#utility.yul\":15037:15073   */\n      sstore\n        /* \"#utility.yul\":14472:15083   */\n      pop\n      pop\n      pop\n        /* \"#utility.yul\":14435:15322   */\n    tag_294:\n      pop\n        /* \"#utility.yul\":14025:15328   */\n      pop\n      pop\n      pop\n        /* \"#utility.yul\":13933:15328   */\n      pop\n      pop\n      jump\t// out\n        /* \"#utility.yul\":15334:15508   */\n    tag_136:\n        /* \"#utility.yul\":15474:15500   */\n      0x4e6f7420617574686f72697a6564206f7065726174696f6e0000000000000000\n        /* \"#utility.yul\":15470:15471   */\n      0x00\n        /* \"#utility.yul\":15462:15468   */\n      dup3\n        /* \"#utility.yul\":15458:15472   */\n      add\n        /* \"#utility.yul\":15451:15501   */\n      mstore\n        /* \"#utility.yul\":15334:15508   */\n      pop\n      jump\t// out\n        /* \"#utility.yul\":15514:15880   */\n    tag_137:\n        /* \"#utility.yul\":15656:15659   */\n      0x00\n        /* \"#utility.yul\":15677:15744   */\n      tag_306\n        /* \"#utility.yul\":15741:15743   */\n      0x18\n        /* \"#utility.yul\":15736:15739   */\n      dup4\n        /* \"#utility.yul\":15677:15744   */\n      tag_93\n      jump\t// in\n    tag_306:\n        /* \"#utility.yul\":15670:15744   */\n      swap2\n      pop\n        /* \"#utility.yul\":15753:15846   */\n      tag_307\n        /* \"#utility.yul\":15842:15845   */\n      dup3\n        /* \"#utility.yul\":15753:15846   */\n      tag_136\n      jump\t// in\n    tag_307:\n        /* \"#utility.yul\":15871:15873   */\n      0x20\n        /* \"#utility.yul\":15866:15869   */\n      dup3\n        /* \"#utility.yul\":15862:15874   */\n      add\n        /* \"#utility.yul\":15855:15874   */\n      swap1\n      pop\n        /* \"#utility.yul\":15514:15880   */\n      swap2\n      swap1\n      pop\n      jump\t// out\n        /* \"#utility.yul\":15886:16305   */\n    tag_76:\n        /* \"#utility.yul\":16052:16056   */\n      0x00\n        /* \"#utility.yul\":16090:16092   */\n      0x20\n        /* \"#utility.yul\":16079:16088   */\n      dup3\n        /* \"#utility.yul\":16075:16093   */\n      add\n        /* \"#utility.yul\":16067:16093   */\n      swap1\n      pop\n        /* \"#utility.yul\":16139:16148   */\n      dup2\n        /* \"#utility.yul\":16133:16137   */\n      dup2\n        /* \"#utility.yul\":16129:16149   */\n      sub\n        /* \"#utility.yul\":16125:16126   */\n      0x00\n        /* \"#utility.yul\":16114:16123   */\n      dup4\n        /* \"#utility.yul\":16110:16127   */\n      add\n        /* \"#utility.yul\":16103:16150   */\n      mstore\n        /* \"#utility.yul\":16167:16298   */\n      tag_309\n        /* \"#utility.yul\":16293:16297   */\n      dup2\n        /* \"#utility.yul\":16167:16298   */\n      tag_137\n      jump\t// in\n    tag_309:\n        /* \"#utility.yul\":16159:16298   */\n      swap1\n      pop\n        /* \"#utility.yul\":15886:16305   */\n      swap2\n      swap1\n      pop\n      jump\t// out\n        /* \"#utility.yul\":16311:16486   */\n    tag_138:\n        /* \"#utility.yul\":16451:16478   */\n      0x416464726573732073686f756c646e2774206265207a65726f00000000000000\n        /* \"#utility.yul\":16447:16448   */\n      0x00\n        /* \"#utility.yul\":16439:16445   */\n      dup3\n        /* \"#utility.yul\":16435:16449   */\n      add\n        /* \"#utility.yul\":16428:16479   */\n      mstore\n        /* \"#utility.yul\":16311:16486   */\n      pop\n      jump\t// out\n        /* \"#utility.yul\":16492:16858   */\n    tag_139:\n        /* \"#utility.yul\":16634:16637   */\n      0x00\n        /* \"#utility.yul\":16655:16722   */\n      tag_312\n        /* \"#utility.yul\":16719:16721   */\n      0x19\n        /* \"#utility.yul\":16714:16717   */\n      dup4\n        /* \"#utility.yul\":16655:16722   */\n      tag_93\n      jump\t// in\n    tag_312:\n        /* \"#utility.yul\":16648:16722   */\n      swap2\n      pop\n        /* \"#utility.yul\":16731:16824   */\n      tag_313\n        /* \"#utility.yul\":16820:16823   */\n      dup3\n        /* \"#utility.yul\":16731:16824   */\n      tag_138\n      jump\t// in\n    tag_313:\n        /* \"#utility.yul\":16849:16851   */\n      0x20\n        /* \"#utility.yul\":16844:16847   */\n      dup3\n        /* \"#utility.yul\":16840:16852   */\n      add\n        /* \"#utility.yul\":16833:16852   */\n      swap1\n      pop\n        /* \"#utility.yul\":16492:16858   */\n      swap2\n      swap1\n      pop\n      jump\t// out\n        /* \"#utility.yul\":16864:17283   */\n    tag_84:\n        /* \"#utility.yul\":17030:17034   */\n      0x00\n        /* \"#utility.yul\":17068:17070   */\n      0x20\n        /* \"#utility.yul\":17057:17066   */\n      dup3\n        /* \"#utility.yul\":17053:17071   */\n      add\n        /* \"#utility.yul\":17045:17071   */\n      swap1\n      pop\n        /* \"#utility.yul\":17117:17126   */\n      dup2\n        /* \"#utility.yul\":17111:17115   */\n      dup2\n        /* \"#utility.yul\":17107:17127   */\n      sub\n        /* \"#utility.yul\":17103:17104   */\n      0x00\n        /* \"#utility.yul\":17092:17101   */\n      dup4\n        /* \"#utility.yul\":17088:17105   */\n      add\n        /* \"#utility.yul\":17081:17128   */\n      mstore\n        /* \"#utility.yul\":17145:17276   */\n      tag_315\n        /* \"#utility.yul\":17271:17275   */\n      dup2\n        /* \"#utility.yul\":17145:17276   */\n      tag_139\n      jump\t// in\n    tag_315:\n        /* \"#utility.yul\":17137:17276   */\n      swap1\n      pop\n        /* \"#utility.yul\":16864:17283   */\n      swap2\n      swap1\n      pop\n      jump\t// out\n\n    auxdata: 0xa2646970667358221220f2d15134e6b14719d13926cb31c06c42ca16b0961f2a5dc95c00883d657bae4764736f6c634300081a0033\n}\n",
				"bytecode": {
					"linkReferences": {},
					"object": "6080604052348015600e575f80fd5b50335f806101000a81548173ffffffffffffffffffffffffffffffffffffffff021916908373ffffffffffffffffffffffffffffffffffffffff1602179055506111398061005b5f395ff3fe608060405234801561000f575f80fd5b5060043610610091575f3560e01c80638da5cb5b116100645780638da5cb5b1461011d5780639b19251a1461013b578063a3ec138d1461016b578063e43252d71461019b578063f2fde38b146101b757610091565b80630121b93f146100955780632d35a8a2146100b15780633477ee2e146100cf578063462e91ec14610101575b5f80fd5b6100af60048036038101906100aa9190610846565b6101d3565b005b6100b961035a565b6040516100c69190610880565b60405180910390f35b6100e960048036038101906100e49190610846565b610360565b6040516100f893929190610909565b60405180910390f35b61011b60048036038101906101169190610a71565b61040c565b005b61012561050a565b6040516101329190610af7565b60405180910390f35b61015560048036038101906101509190610b3a565b61052d565b6040516101629190610b7f565b60405180910390f35b61018560048036038101906101809190610b3a565b61054a565b6040516101929190610b7f565b60405180910390f35b6101b560048036038101906101b09190610b3a565b610567565b005b6101d160048036038101906101cc9190610b3a565b61064c565b005b60015f3373ffffffffffffffffffffffffffffffffffffffff1673ffffffffffffffffffffffffffffffffffffffff1681526020019081526020015f205f9054906101000a900460ff161561025d576040517f08c379a000000000000000000000000000000000000000000000000000000000815260040161025490610be2565b60405180910390fd5b5f8111801561026e57506003548111155b6102ad576040517f08c379a00000000000000000000000000000000000000000000000000000000081526004016102a490610c4a565b60405180910390fd5b6001805f3373ffffffffffffffffffffffffffffffffffffffff1673ffffffffffffffffffffffffffffffffffffffff1681526020019081526020015f205f6101000a81548160ff02191690831515021790555060025f8281526020019081526020015f206002015f81548092919061032590610c95565b9190505550807ffff3c900d938d21d0990d786e819f29b8d05c1ef587b462b939609625b684b1660405160405180910390a250565b60035481565b6002602052805f5260405f205f91509050805f01549080600101805461038590610d09565b80601f01602080910402602001604051908101604052809291908181526020018280546103b190610d09565b80156103fc5780601f106103d3576101008083540402835291602001916103fc565b820191905f5260205f20905b8154815290600101906020018083116103df57829003601f168201915b5050505050908060020154905083565b60045f3373ffffffffffffffffffffffffffffffffffffffff1673ffffffffffffffffffffffffffffffffffffffff1681526020019081526020015f205f9054906101000a900460ff16610495576040517f08c379a000000000000000000000000000000000000000000000000000000000815260040161048c90610da9565b60405180910390fd5b60035f8154809291906104a790610c95565b9190505550604051806060016040528060035481526020018281526020015f81525060025f60035481526020019081526020015f205f820151815f015560208201518160010190816104f99190610f64565b506040820151816002015590505050565b5f8054906101000a900473ffffffffffffffffffffffffffffffffffffffff1681565b6004602052805f5260405f205f915054906101000a900460ff1681565b6001602052805f5260405f205f915054906101000a900460ff1681565b5f8054906101000a900473ffffffffffffffffffffffffffffffffffffffff1673ffffffffffffffffffffffffffffffffffffffff163373ffffffffffffffffffffffffffffffffffffffff16146105f4576040517f08c379a00000000000000000000000000000000000000000000000000000000081526004016105eb9061107d565b60405180910390fd5b600160045f8373ffffffffffffffffffffffffffffffffffffffff1673ffffffffffffffffffffffffffffffffffffffff1681526020019081526020015f205f6101000a81548160ff02191690831515021790555050565b5f8054906101000a900473ffffffffffffffffffffffffffffffffffffffff1673ffffffffffffffffffffffffffffffffffffffff163373ffffffffffffffffffffffffffffffffffffffff16146106d9576040517f08c379a00000000000000000000000000000000000000000000000000000000081526004016106d09061107d565b60405180910390fd5b5f73ffffffffffffffffffffffffffffffffffffffff168173ffffffffffffffffffffffffffffffffffffffff1603610747576040517f08c379a000000000000000000000000000000000000000000000000000000000815260040161073e906110e5565b60405180910390fd5b8073ffffffffffffffffffffffffffffffffffffffff165f8054906101000a900473ffffffffffffffffffffffffffffffffffffffff1673ffffffffffffffffffffffffffffffffffffffff167f8be0079c531659141344cd1fd0a4f28419497f9722a3daafe3b4186f6b6457e060405160405180910390a3805f806101000a81548173ffffffffffffffffffffffffffffffffffffffff021916908373ffffffffffffffffffffffffffffffffffffffff16021790555050565b5f604051905090565b5f80fd5b5f80fd5b5f819050919050565b61082581610813565b811461082f575f80fd5b50565b5f813590506108408161081c565b92915050565b5f6020828403121561085b5761085a61080b565b5b5f61086884828501610832565b91505092915050565b61087a81610813565b82525050565b5f6020820190506108935f830184610871565b92915050565b5f81519050919050565b5f82825260208201905092915050565b8281835e5f83830152505050565b5f601f19601f8301169050919050565b5f6108db82610899565b6108e581856108a3565b93506108f58185602086016108b3565b6108fe816108c1565b840191505092915050565b5f60608201905061091c5f830186610871565b818103602083015261092e81856108d1565b905061093d6040830184610871565b949350505050565b5f80fd5b5f80fd5b7f4e487b71000000000000000000000000000000000000000000000000000000005f52604160045260245ffd5b610983826108c1565b810181811067ffffffffffffffff821117156109a2576109a161094d565b5b80604052505050565b5f6109b4610802565b90506109c0828261097a565b919050565b5f67ffffffffffffffff8211156109df576109de61094d565b5b6109e8826108c1565b9050602081019050919050565b828183375f83830152505050565b5f610a15610a10846109c5565b6109ab565b905082815260208101848484011115610a3157610a30610949565b5b610a3c8482856109f5565b509392505050565b5f82601f830112610a5857610a57610945565b5b8135610a68848260208601610a03565b91505092915050565b5f60208284031215610a8657610a8561080b565b5b5f82013567ffffffffffffffff811115610aa357610aa261080f565b5b610aaf84828501610a44565b91505092915050565b5f73ffffffffffffffffffffffffffffffffffffffff82169050919050565b5f610ae182610ab8565b9050919050565b610af181610ad7565b82525050565b5f602082019050610b0a5f830184610ae8565b92915050565b610b1981610ad7565b8114610b23575f80fd5b50565b5f81359050610b3481610b10565b92915050565b5f60208284031215610b4f57610b4e61080b565b5b5f610b5c84828501610b26565b91505092915050565b5f8115159050919050565b610b7981610b65565b82525050565b5f602082019050610b925f830184610b70565b92915050565b7f566f7573206176657a2064656a6120766f7465000000000000000000000000005f82015250565b5f610bcc6013836108a3565b9150610bd782610b98565b602082019050919050565b5f6020820190508181035f830152610bf981610bc0565b9050919050565b7f43616e646964617420696e76616c6964650000000000000000000000000000005f82015250565b5f610c346011836108a3565b9150610c3f82610c00565b602082019050919050565b5f6020820190508181035f830152610c6181610c28565b9050919050565b7f4e487b71000000000000000000000000000000000000000000000000000000005f52601160045260245ffd5b5f610c9f82610813565b91507fffffffffffffffffffffffffffffffffffffffffffffffffffffffffffffffff8203610cd157610cd0610c68565b5b600182019050919050565b7f4e487b71000000000000000000000000000000000000000000000000000000005f52602260045260245ffd5b5f6002820490506001821680610d2057607f821691505b602082108103610d3357610d32610cdc565b5b50919050565b7f41647265737365206e6f6e206175746f7269736565206120616a6f75746572205f8201527f756e2063616e6469646174000000000000000000000000000000000000000000602082015250565b5f610d93602b836108a3565b9150610d9e82610d39565b604082019050919050565b5f6020820190508181035f830152610dc081610d87565b9050919050565b5f819050815f5260205f209050919050565b5f6020601f8301049050919050565b5f82821b905092915050565b5f60088302610e237fffffffffffffffffffffffffffffffffffffffffffffffffffffffffffffffff82610de8565b610e2d8683610de8565b95508019841693508086168417925050509392505050565b5f819050919050565b5f610e68610e63610e5e84610813565b610e45565b610813565b9050919050565b5f819050919050565b610e8183610e4e565b610e95610e8d82610e6f565b848454610df4565b825550505050565b5f90565b610ea9610e9d565b610eb4818484610e78565b505050565b5b81811015610ed757610ecc5f82610ea1565b600181019050610eba565b5050565b601f821115610f1c57610eed81610dc7565b610ef684610dd9565b81016020851015610f05578190505b610f19610f1185610dd9565b830182610eb9565b50505b505050565b5f82821c905092915050565b5f610f3c5f1984600802610f21565b1980831691505092915050565b5f610f548383610f2d565b9150826002028217905092915050565b610f6d82610899565b67ffffffffffffffff811115610f8657610f8561094d565b5b610f908254610d09565b610f9b828285610edb565b5f60209050601f831160018114610fcc575f8415610fba578287015190505b610fc48582610f49565b86555061102b565b601f198416610fda86610dc7565b5f5b8281101561100157848901518255600182019150602085019450602081019050610fdc565b8683101561101e578489015161101a601f891682610f2d565b8355505b6001600288020188555050505b505050505050565b7f4e6f7420617574686f72697a6564206f7065726174696f6e00000000000000005f82015250565b5f6110676018836108a3565b915061107282611033565b602082019050919050565b5f6020820190508181035f8301526110948161105b565b9050919050565b7f416464726573732073686f756c646e2774206265207a65726f000000000000005f82015250565b5f6110cf6019836108a3565b91506110da8261109b565b602082019050919050565b5f6020820190508181035f8301526110fc816110c3565b905091905056fea2646970667358221220f2d15134e6b14719d13926cb31c06c42ca16b0961f2a5dc95c00883d657bae4764736f6c634300081a0033",
					"opcodes": "PUSH1 0x80 PUSH1 0x40 MSTORE CALLVALUE DUP1 ISZERO PUSH1 0xE JUMPI PUSH0 DUP1 REVERT JUMPDEST POP CALLER PUSH0 DUP1 PUSH2 0x100 EXP DUP2 SLOAD DUP2 PUSH20 0xFFFFFFFFFFFFFFFFFFFFFFFFFFFFFFFFFFFFFFFF MUL NOT AND SWAP1 DUP4 PUSH20 0xFFFFFFFFFFFFFFFFFFFFFFFFFFFFFFFFFFFFFFFF AND MUL OR SWAP1 SSTORE POP PUSH2 0x1139 DUP1 PUSH2 0x5B PUSH0 CODECOPY PUSH0 RETURN INVALID PUSH1 0x80 PUSH1 0x40 MSTORE CALLVALUE DUP1 ISZERO PUSH2 0xF JUMPI PUSH0 DUP1 REVERT JUMPDEST POP PUSH1 0x4 CALLDATASIZE LT PUSH2 0x91 JUMPI PUSH0 CALLDATALOAD PUSH1 0xE0 SHR DUP1 PUSH4 0x8DA5CB5B GT PUSH2 0x64 JUMPI DUP1 PUSH4 0x8DA5CB5B EQ PUSH2 0x11D JUMPI DUP1 PUSH4 0x9B19251A EQ PUSH2 0x13B JUMPI DUP1 PUSH4 0xA3EC138D EQ PUSH2 0x16B JUMPI DUP1 PUSH4 0xE43252D7 EQ PUSH2 0x19B JUMPI DUP1 PUSH4 0xF2FDE38B EQ PUSH2 0x1B7 JUMPI PUSH2 0x91 JUMP JUMPDEST DUP1 PUSH4 0x121B93F EQ PUSH2 0x95 JUMPI DUP1 PUSH4 0x2D35A8A2 EQ PUSH2 0xB1 JUMPI DUP1 PUSH4 0x3477EE2E EQ PUSH2 0xCF JUMPI DUP1 PUSH4 0x462E91EC EQ PUSH2 0x101 JUMPI JUMPDEST PUSH0 DUP1 REVERT JUMPDEST PUSH2 0xAF PUSH1 0x4 DUP1 CALLDATASIZE SUB DUP2 ADD SWAP1 PUSH2 0xAA SWAP2 SWAP1 PUSH2 0x846 JUMP JUMPDEST PUSH2 0x1D3 JUMP JUMPDEST STOP JUMPDEST PUSH2 0xB9 PUSH2 0x35A JUMP JUMPDEST PUSH1 0x40 MLOAD PUSH2 0xC6 SWAP2 SWAP1 PUSH2 0x880 JUMP JUMPDEST PUSH1 0x40 MLOAD DUP1 SWAP2 SUB SWAP1 RETURN JUMPDEST PUSH2 0xE9 PUSH1 0x4 DUP1 CALLDATASIZE SUB DUP2 ADD SWAP1 PUSH2 0xE4 SWAP2 SWAP1 PUSH2 0x846 JUMP JUMPDEST PUSH2 0x360 JUMP JUMPDEST PUSH1 0x40 MLOAD PUSH2 0xF8 SWAP4 SWAP3 SWAP2 SWAP1 PUSH2 0x909 JUMP JUMPDEST PUSH1 0x40 MLOAD DUP1 SWAP2 SUB SWAP1 RETURN JUMPDEST PUSH2 0x11B PUSH1 0x4 DUP1 CALLDATASIZE SUB DUP2 ADD SWAP1 PUSH2 0x116 SWAP2 SWAP1 PUSH2 0xA71 JUMP JUMPDEST PUSH2 0x40C JUMP JUMPDEST STOP JUMPDEST PUSH2 0x125 PUSH2 0x50A JUMP JUMPDEST PUSH1 0x40 MLOAD PUSH2 0x132 SWAP2 SWAP1 PUSH2 0xAF7 JUMP JUMPDEST PUSH1 0x40 MLOAD DUP1 SWAP2 SUB SWAP1 RETURN JUMPDEST PUSH2 0x155 PUSH1 0x4 DUP1 CALLDATASIZE SUB DUP2 ADD SWAP1 PUSH2 0x150 SWAP2 SWAP1 PUSH2 0xB3A JUMP JUMPDEST PUSH2 0x52D JUMP JUMPDEST PUSH1 0x40 MLOAD PUSH2 0x162 SWAP2 SWAP1 PUSH2 0xB7F JUMP JUMPDEST PUSH1 0x40 MLOAD DUP1 SWAP2 SUB SWAP1 RETURN JUMPDEST PUSH2 0x185 PUSH1 0x4 DUP1 CALLDATASIZE SUB DUP2 ADD SWAP1 PUSH2 0x180 SWAP2 SWAP1 PUSH2 0xB3A JUMP JUMPDEST PUSH2 0x54A JUMP JUMPDEST PUSH1 0x40 MLOAD PUSH2 0x192 SWAP2 SWAP1 PUSH2 0xB7F JUMP JUMPDEST PUSH1 0x40 MLOAD DUP1 SWAP2 SUB SWAP1 RETURN JUMPDEST PUSH2 0x1B5 PUSH1 0x4 DUP1 CALLDATASIZE SUB DUP2 ADD SWAP1 PUSH2 0x1B0 SWAP2 SWAP1 PUSH2 0xB3A JUMP JUMPDEST PUSH2 0x567 JUMP JUMPDEST STOP JUMPDEST PUSH2 0x1D1 PUSH1 0x4 DUP1 CALLDATASIZE SUB DUP2 ADD SWAP1 PUSH2 0x1CC SWAP2 SWAP1 PUSH2 0xB3A JUMP JUMPDEST PUSH2 0x64C JUMP JUMPDEST STOP JUMPDEST PUSH1 0x1 PUSH0 CALLER PUSH20 0xFFFFFFFFFFFFFFFFFFFFFFFFFFFFFFFFFFFFFFFF AND PUSH20 0xFFFFFFFFFFFFFFFFFFFFFFFFFFFFFFFFFFFFFFFF AND DUP2 MSTORE PUSH1 0x20 ADD SWAP1 DUP2 MSTORE PUSH1 0x20 ADD PUSH0 KECCAK256 PUSH0 SWAP1 SLOAD SWAP1 PUSH2 0x100 EXP SWAP1 DIV PUSH1 0xFF AND ISZERO PUSH2 0x25D JUMPI PUSH1 0x40 MLOAD PUSH32 0x8C379A000000000000000000000000000000000000000000000000000000000 DUP2 MSTORE PUSH1 0x4 ADD PUSH2 0x254 SWAP1 PUSH2 0xBE2 JUMP JUMPDEST PUSH1 0x40 MLOAD DUP1 SWAP2 SUB SWAP1 REVERT JUMPDEST PUSH0 DUP2 GT DUP1 ISZERO PUSH2 0x26E JUMPI POP PUSH1 0x3 SLOAD DUP2 GT ISZERO JUMPDEST PUSH2 0x2AD JUMPI PUSH1 0x40 MLOAD PUSH32 0x8C379A000000000000000000000000000000000000000000000000000000000 DUP2 MSTORE PUSH1 0x4 ADD PUSH2 0x2A4 SWAP1 PUSH2 0xC4A JUMP JUMPDEST PUSH1 0x40 MLOAD DUP1 SWAP2 SUB SWAP1 REVERT JUMPDEST PUSH1 0x1 DUP1 PUSH0 CALLER PUSH20 0xFFFFFFFFFFFFFFFFFFFFFFFFFFFFFFFFFFFFFFFF AND PUSH20 0xFFFFFFFFFFFFFFFFFFFFFFFFFFFFFFFFFFFFFFFF AND DUP2 MSTORE PUSH1 0x20 ADD SWAP1 DUP2 MSTORE PUSH1 0x20 ADD PUSH0 KECCAK256 PUSH0 PUSH2 0x100 EXP DUP2 SLOAD DUP2 PUSH1 0xFF MUL NOT AND SWAP1 DUP4 ISZERO ISZERO MUL OR SWAP1 SSTORE POP PUSH1 0x2 PUSH0 DUP3 DUP2 MSTORE PUSH1 0x20 ADD SWAP1 DUP2 MSTORE PUSH1 0x20 ADD PUSH0 KECCAK256 PUSH1 0x2 ADD PUSH0 DUP2 SLOAD DUP1 SWAP3 SWAP2 SWAP1 PUSH2 0x325 SWAP1 PUSH2 0xC95 JUMP JUMPDEST SWAP2 SWAP1 POP SSTORE POP DUP1 PUSH32 0xFFF3C900D938D21D0990D786E819F29B8D05C1EF587B462B939609625B684B16 PUSH1 0x40 MLOAD PUSH1 0x40 MLOAD DUP1 SWAP2 SUB SWAP1 LOG2 POP JUMP JUMPDEST PUSH1 0x3 SLOAD DUP2 JUMP JUMPDEST PUSH1 0x2 PUSH1 0x20 MSTORE DUP1 PUSH0 MSTORE PUSH1 0x40 PUSH0 KECCAK256 PUSH0 SWAP2 POP SWAP1 POP DUP1 PUSH0 ADD SLOAD SWAP1 DUP1 PUSH1 0x1 ADD DUP1 SLOAD PUSH2 0x385 SWAP1 PUSH2 0xD09 JUMP JUMPDEST DUP1 PUSH1 0x1F ADD PUSH1 0x20 DUP1 SWAP2 DIV MUL PUSH1 0x20 ADD PUSH1 0x40 MLOAD SWAP1 DUP2 ADD PUSH1 0x40 MSTORE DUP1 SWAP3 SWAP2 SWAP1 DUP2 DUP2 MSTORE PUSH1 0x20 ADD DUP3 DUP1 SLOAD PUSH2 0x3B1 SWAP1 PUSH2 0xD09 JUMP JUMPDEST DUP1 ISZERO PUSH2 0x3FC JUMPI DUP1 PUSH1 0x1F LT PUSH2 0x3D3 JUMPI PUSH2 0x100 DUP1 DUP4 SLOAD DIV MUL DUP4 MSTORE SWAP2 PUSH1 0x20 ADD SWAP2 PUSH2 0x3FC JUMP JUMPDEST DUP3 ADD SWAP2 SWAP1 PUSH0 MSTORE PUSH1 0x20 PUSH0 KECCAK256 SWAP1 JUMPDEST DUP2 SLOAD DUP2 MSTORE SWAP1 PUSH1 0x1 ADD SWAP1 PUSH1 0x20 ADD DUP1 DUP4 GT PUSH2 0x3DF JUMPI DUP3 SWAP1 SUB PUSH1 0x1F AND DUP3 ADD SWAP2 JUMPDEST POP POP POP POP POP SWAP1 DUP1 PUSH1 0x2 ADD SLOAD SWAP1 POP DUP4 JUMP JUMPDEST PUSH1 0x4 PUSH0 CALLER PUSH20 0xFFFFFFFFFFFFFFFFFFFFFFFFFFFFFFFFFFFFFFFF AND PUSH20 0xFFFFFFFFFFFFFFFFFFFFFFFFFFFFFFFFFFFFFFFF AND DUP2 MSTORE PUSH1 0x20 ADD SWAP1 DUP2 MSTORE PUSH1 0x20 ADD PUSH0 KECCAK256 PUSH0 SWAP1 SLOAD SWAP1 PUSH2 0x100 EXP SWAP1 DIV PUSH1 0xFF AND PUSH2 0x495 JUMPI PUSH1 0x40 MLOAD PUSH32 0x8C379A000000000000000000000000000000000000000000000000000000000 DUP2 MSTORE PUSH1 0x4 ADD PUSH2 0x48C SWAP1 PUSH2 0xDA9 JUMP JUMPDEST PUSH1 0x40 MLOAD DUP1 SWAP2 SUB SWAP1 REVERT JUMPDEST PUSH1 0x3 PUSH0 DUP2 SLOAD DUP1 SWAP3 SWAP2 SWAP1 PUSH2 0x4A7 SWAP1 PUSH2 0xC95 JUMP JUMPDEST SWAP2 SWAP1 POP SSTORE POP PUSH1 0x40 MLOAD DUP1 PUSH1 0x60 ADD PUSH1 0x40 MSTORE DUP1 PUSH1 0x3 SLOAD DUP2 MSTORE PUSH1 0x20 ADD DUP3 DUP2 MSTORE PUSH1 0x20 ADD PUSH0 DUP2 MSTORE POP PUSH1 0x2 PUSH0 PUSH1 0x3 SLOAD DUP2 MSTORE PUSH1 0x20 ADD SWAP1 DUP2 MSTORE PUSH1 0x20 ADD PUSH0 KECCAK256 PUSH0 DUP3 ADD MLOAD DUP2 PUSH0 ADD SSTORE PUSH1 0x20 DUP3 ADD MLOAD DUP2 PUSH1 0x1 ADD SWAP1 DUP2 PUSH2 0x4F9 SWAP2 SWAP1 PUSH2 0xF64 JUMP JUMPDEST POP PUSH1 0x40 DUP3 ADD MLOAD DUP2 PUSH1 0x2 ADD SSTORE SWAP1 POP POP POP JUMP JUMPDEST PUSH0 DUP1 SLOAD SWAP1 PUSH2 0x100 EXP SWAP1 DIV PUSH20 0xFFFFFFFFFFFFFFFFFFFFFFFFFFFFFFFFFFFFFFFF AND DUP2 JUMP JUMPDEST PUSH1 0x4 PUSH1 0x20 MSTORE DUP1 PUSH0 MSTORE PUSH1 0x40 PUSH0 KECCAK256 PUSH0 SWAP2 POP SLOAD SWAP1 PUSH2 0x100 EXP SWAP1 DIV PUSH1 0xFF AND DUP2 JUMP JUMPDEST PUSH1 0x1 PUSH1 0x20 MSTORE DUP1 PUSH0 MSTORE PUSH1 0x40 PUSH0 KECCAK256 PUSH0 SWAP2 POP SLOAD SWAP1 PUSH2 0x100 EXP SWAP1 DIV PUSH1 0xFF AND DUP2 JUMP JUMPDEST PUSH0 DUP1 SLOAD SWAP1 PUSH2 0x100 EXP SWAP1 DIV PUSH20 0xFFFFFFFFFFFFFFFFFFFFFFFFFFFFFFFFFFFFFFFF AND PUSH20 0xFFFFFFFFFFFFFFFFFFFFFFFFFFFFFFFFFFFFFFFF AND CALLER PUSH20 0xFFFFFFFFFFFFFFFFFFFFFFFFFFFFFFFFFFFFFFFF AND EQ PUSH2 0x5F4 JUMPI PUSH1 0x40 MLOAD PUSH32 0x8C379A000000000000000000000000000000000000000000000000000000000 DUP2 MSTORE PUSH1 0x4 ADD PUSH2 0x5EB SWAP1 PUSH2 0x107D JUMP JUMPDEST PUSH1 0x40 MLOAD DUP1 SWAP2 SUB SWAP1 REVERT JUMPDEST PUSH1 0x1 PUSH1 0x4 PUSH0 DUP4 PUSH20 0xFFFFFFFFFFFFFFFFFFFFFFFFFFFFFFFFFFFFFFFF AND PUSH20 0xFFFFFFFFFFFFFFFFFFFFFFFFFFFFFFFFFFFFFFFF AND DUP2 MSTORE PUSH1 0x20 ADD SWAP1 DUP2 MSTORE PUSH1 0x20 ADD PUSH0 KECCAK256 PUSH0 PUSH2 0x100 EXP DUP2 SLOAD DUP2 PUSH1 0xFF MUL NOT AND SWAP1 DUP4 ISZERO ISZERO MUL OR SWAP1 SSTORE POP POP JUMP JUMPDEST PUSH0 DUP1 SLOAD SWAP1 PUSH2 0x100 EXP SWAP1 DIV PUSH20 0xFFFFFFFFFFFFFFFFFFFFFFFFFFFFFFFFFFFFFFFF AND PUSH20 0xFFFFFFFFFFFFFFFFFFFFFFFFFFFFFFFFFFFFFFFF AND CALLER PUSH20 0xFFFFFFFFFFFFFFFFFFFFFFFFFFFFFFFFFFFFFFFF AND EQ PUSH2 0x6D9 JUMPI PUSH1 0x40 MLOAD PUSH32 0x8C379A000000000000000000000000000000000000000000000000000000000 DUP2 MSTORE PUSH1 0x4 ADD PUSH2 0x6D0 SWAP1 PUSH2 0x107D JUMP JUMPDEST PUSH1 0x40 MLOAD DUP1 SWAP2 SUB SWAP1 REVERT JUMPDEST PUSH0 PUSH20 0xFFFFFFFFFFFFFFFFFFFFFFFFFFFFFFFFFFFFFFFF AND DUP2 PUSH20 0xFFFFFFFFFFFFFFFFFFFFFFFFFFFFFFFFFFFFFFFF AND SUB PUSH2 0x747 JUMPI PUSH1 0x40 MLOAD PUSH32 0x8C379A000000000000000000000000000000000000000000000000000000000 DUP2 MSTORE PUSH1 0x4 ADD PUSH2 0x73E SWAP1 PUSH2 0x10E5 JUMP JUMPDEST PUSH1 0x40 MLOAD DUP1 SWAP2 SUB SWAP1 REVERT JUMPDEST DUP1 PUSH20 0xFFFFFFFFFFFFFFFFFFFFFFFFFFFFFFFFFFFFFFFF AND PUSH0 DUP1 SLOAD SWAP1 PUSH2 0x100 EXP SWAP1 DIV PUSH20 0xFFFFFFFFFFFFFFFFFFFFFFFFFFFFFFFFFFFFFFFF AND PUSH20 0xFFFFFFFFFFFFFFFFFFFFFFFFFFFFFFFFFFFFFFFF AND PUSH32 0x8BE0079C531659141344CD1FD0A4F28419497F9722A3DAAFE3B4186F6B6457E0 PUSH1 0x40 MLOAD PUSH1 0x40 MLOAD DUP1 SWAP2 SUB SWAP1 LOG3 DUP1 PUSH0 DUP1 PUSH2 0x100 EXP DUP2 SLOAD DUP2 PUSH20 0xFFFFFFFFFFFFFFFFFFFFFFFFFFFFFFFFFFFFFFFF MUL NOT AND SWAP1 DUP4 PUSH20 0xFFFFFFFFFFFFFFFFFFFFFFFFFFFFFFFFFFFFFFFF AND MUL OR SWAP1 SSTORE POP POP JUMP JUMPDEST PUSH0 PUSH1 0x40 MLOAD SWAP1 POP SWAP1 JUMP JUMPDEST PUSH0 DUP1 REVERT JUMPDEST PUSH0 DUP1 REVERT JUMPDEST PUSH0 DUP2 SWAP1 POP SWAP2 SWAP1 POP JUMP JUMPDEST PUSH2 0x825 DUP2 PUSH2 0x813 JUMP JUMPDEST DUP2 EQ PUSH2 0x82F JUMPI PUSH0 DUP1 REVERT JUMPDEST POP JUMP JUMPDEST PUSH0 DUP2 CALLDATALOAD SWAP1 POP PUSH2 0x840 DUP2 PUSH2 0x81C JUMP JUMPDEST SWAP3 SWAP2 POP POP JUMP JUMPDEST PUSH0 PUSH1 0x20 DUP3 DUP5 SUB SLT ISZERO PUSH2 0x85B JUMPI PUSH2 0x85A PUSH2 0x80B JUMP JUMPDEST JUMPDEST PUSH0 PUSH2 0x868 DUP5 DUP3 DUP6 ADD PUSH2 0x832 JUMP JUMPDEST SWAP2 POP POP SWAP3 SWAP2 POP POP JUMP JUMPDEST PUSH2 0x87A DUP2 PUSH2 0x813 JUMP JUMPDEST DUP3 MSTORE POP POP JUMP JUMPDEST PUSH0 PUSH1 0x20 DUP3 ADD SWAP1 POP PUSH2 0x893 PUSH0 DUP4 ADD DUP5 PUSH2 0x871 JUMP JUMPDEST SWAP3 SWAP2 POP POP JUMP JUMPDEST PUSH0 DUP2 MLOAD SWAP1 POP SWAP2 SWAP1 POP JUMP JUMPDEST PUSH0 DUP3 DUP3 MSTORE PUSH1 0x20 DUP3 ADD SWAP1 POP SWAP3 SWAP2 POP POP JUMP JUMPDEST DUP3 DUP2 DUP4 MCOPY PUSH0 DUP4 DUP4 ADD MSTORE POP POP POP JUMP JUMPDEST PUSH0 PUSH1 0x1F NOT PUSH1 0x1F DUP4 ADD AND SWAP1 POP SWAP2 SWAP1 POP JUMP JUMPDEST PUSH0 PUSH2 0x8DB DUP3 PUSH2 0x899 JUMP JUMPDEST PUSH2 0x8E5 DUP2 DUP6 PUSH2 0x8A3 JUMP JUMPDEST SWAP4 POP PUSH2 0x8F5 DUP2 DUP6 PUSH1 0x20 DUP7 ADD PUSH2 0x8B3 JUMP JUMPDEST PUSH2 0x8FE DUP2 PUSH2 0x8C1 JUMP JUMPDEST DUP5 ADD SWAP2 POP POP SWAP3 SWAP2 POP POP JUMP JUMPDEST PUSH0 PUSH1 0x60 DUP3 ADD SWAP1 POP PUSH2 0x91C PUSH0 DUP4 ADD DUP7 PUSH2 0x871 JUMP JUMPDEST DUP2 DUP2 SUB PUSH1 0x20 DUP4 ADD MSTORE PUSH2 0x92E DUP2 DUP6 PUSH2 0x8D1 JUMP JUMPDEST SWAP1 POP PUSH2 0x93D PUSH1 0x40 DUP4 ADD DUP5 PUSH2 0x871 JUMP JUMPDEST SWAP5 SWAP4 POP POP POP POP JUMP JUMPDEST PUSH0 DUP1 REVERT JUMPDEST PUSH0 DUP1 REVERT JUMPDEST PUSH32 0x4E487B7100000000000000000000000000000000000000000000000000000000 PUSH0 MSTORE PUSH1 0x41 PUSH1 0x4 MSTORE PUSH1 0x24 PUSH0 REVERT JUMPDEST PUSH2 0x983 DUP3 PUSH2 0x8C1 JUMP JUMPDEST DUP2 ADD DUP2 DUP2 LT PUSH8 0xFFFFFFFFFFFFFFFF DUP3 GT OR ISZERO PUSH2 0x9A2 JUMPI PUSH2 0x9A1 PUSH2 0x94D JUMP JUMPDEST JUMPDEST DUP1 PUSH1 0x40 MSTORE POP POP POP JUMP JUMPDEST PUSH0 PUSH2 0x9B4 PUSH2 0x802 JUMP JUMPDEST SWAP1 POP PUSH2 0x9C0 DUP3 DUP3 PUSH2 0x97A JUMP JUMPDEST SWAP2 SWAP1 POP JUMP JUMPDEST PUSH0 PUSH8 0xFFFFFFFFFFFFFFFF DUP3 GT ISZERO PUSH2 0x9DF JUMPI PUSH2 0x9DE PUSH2 0x94D JUMP JUMPDEST JUMPDEST PUSH2 0x9E8 DUP3 PUSH2 0x8C1 JUMP JUMPDEST SWAP1 POP PUSH1 0x20 DUP2 ADD SWAP1 POP SWAP2 SWAP1 POP JUMP JUMPDEST DUP3 DUP2 DUP4 CALLDATACOPY PUSH0 DUP4 DUP4 ADD MSTORE POP POP POP JUMP JUMPDEST PUSH0 PUSH2 0xA15 PUSH2 0xA10 DUP5 PUSH2 0x9C5 JUMP JUMPDEST PUSH2 0x9AB JUMP JUMPDEST SWAP1 POP DUP3 DUP2 MSTORE PUSH1 0x20 DUP2 ADD DUP5 DUP5 DUP5 ADD GT ISZERO PUSH2 0xA31 JUMPI PUSH2 0xA30 PUSH2 0x949 JUMP JUMPDEST JUMPDEST PUSH2 0xA3C DUP5 DUP3 DUP6 PUSH2 0x9F5 JUMP JUMPDEST POP SWAP4 SWAP3 POP POP POP JUMP JUMPDEST PUSH0 DUP3 PUSH1 0x1F DUP4 ADD SLT PUSH2 0xA58 JUMPI PUSH2 0xA57 PUSH2 0x945 JUMP JUMPDEST JUMPDEST DUP2 CALLDATALOAD PUSH2 0xA68 DUP5 DUP3 PUSH1 0x20 DUP7 ADD PUSH2 0xA03 JUMP JUMPDEST SWAP2 POP POP SWAP3 SWAP2 POP POP JUMP JUMPDEST PUSH0 PUSH1 0x20 DUP3 DUP5 SUB SLT ISZERO PUSH2 0xA86 JUMPI PUSH2 0xA85 PUSH2 0x80B JUMP JUMPDEST JUMPDEST PUSH0 DUP3 ADD CALLDATALOAD PUSH8 0xFFFFFFFFFFFFFFFF DUP2 GT ISZERO PUSH2 0xAA3 JUMPI PUSH2 0xAA2 PUSH2 0x80F JUMP JUMPDEST JUMPDEST PUSH2 0xAAF DUP5 DUP3 DUP6 ADD PUSH2 0xA44 JUMP JUMPDEST SWAP2 POP POP SWAP3 SWAP2 POP POP JUMP JUMPDEST PUSH0 PUSH20 0xFFFFFFFFFFFFFFFFFFFFFFFFFFFFFFFFFFFFFFFF DUP3 AND SWAP1 POP SWAP2 SWAP1 POP JUMP JUMPDEST PUSH0 PUSH2 0xAE1 DUP3 PUSH2 0xAB8 JUMP JUMPDEST SWAP1 POP SWAP2 SWAP1 POP JUMP JUMPDEST PUSH2 0xAF1 DUP2 PUSH2 0xAD7 JUMP JUMPDEST DUP3 MSTORE POP POP JUMP JUMPDEST PUSH0 PUSH1 0x20 DUP3 ADD SWAP1 POP PUSH2 0xB0A PUSH0 DUP4 ADD DUP5 PUSH2 0xAE8 JUMP JUMPDEST SWAP3 SWAP2 POP POP JUMP JUMPDEST PUSH2 0xB19 DUP2 PUSH2 0xAD7 JUMP JUMPDEST DUP2 EQ PUSH2 0xB23 JUMPI PUSH0 DUP1 REVERT JUMPDEST POP JUMP JUMPDEST PUSH0 DUP2 CALLDATALOAD SWAP1 POP PUSH2 0xB34 DUP2 PUSH2 0xB10 JUMP JUMPDEST SWAP3 SWAP2 POP POP JUMP JUMPDEST PUSH0 PUSH1 0x20 DUP3 DUP5 SUB SLT ISZERO PUSH2 0xB4F JUMPI PUSH2 0xB4E PUSH2 0x80B JUMP JUMPDEST JUMPDEST PUSH0 PUSH2 0xB5C DUP5 DUP3 DUP6 ADD PUSH2 0xB26 JUMP JUMPDEST SWAP2 POP POP SWAP3 SWAP2 POP POP JUMP JUMPDEST PUSH0 DUP2 ISZERO ISZERO SWAP1 POP SWAP2 SWAP1 POP JUMP JUMPDEST PUSH2 0xB79 DUP2 PUSH2 0xB65 JUMP JUMPDEST DUP3 MSTORE POP POP JUMP JUMPDEST PUSH0 PUSH1 0x20 DUP3 ADD SWAP1 POP PUSH2 0xB92 PUSH0 DUP4 ADD DUP5 PUSH2 0xB70 JUMP JUMPDEST SWAP3 SWAP2 POP POP JUMP JUMPDEST PUSH32 0x566F7573206176657A2064656A6120766F746500000000000000000000000000 PUSH0 DUP3 ADD MSTORE POP JUMP JUMPDEST PUSH0 PUSH2 0xBCC PUSH1 0x13 DUP4 PUSH2 0x8A3 JUMP JUMPDEST SWAP2 POP PUSH2 0xBD7 DUP3 PUSH2 0xB98 JUMP JUMPDEST PUSH1 0x20 DUP3 ADD SWAP1 POP SWAP2 SWAP1 POP JUMP JUMPDEST PUSH0 PUSH1 0x20 DUP3 ADD SWAP1 POP DUP2 DUP2 SUB PUSH0 DUP4 ADD MSTORE PUSH2 0xBF9 DUP2 PUSH2 0xBC0 JUMP JUMPDEST SWAP1 POP SWAP2 SWAP1 POP JUMP JUMPDEST PUSH32 0x43616E646964617420696E76616C696465000000000000000000000000000000 PUSH0 DUP3 ADD MSTORE POP JUMP JUMPDEST PUSH0 PUSH2 0xC34 PUSH1 0x11 DUP4 PUSH2 0x8A3 JUMP JUMPDEST SWAP2 POP PUSH2 0xC3F DUP3 PUSH2 0xC00 JUMP JUMPDEST PUSH1 0x20 DUP3 ADD SWAP1 POP SWAP2 SWAP1 POP JUMP JUMPDEST PUSH0 PUSH1 0x20 DUP3 ADD SWAP1 POP DUP2 DUP2 SUB PUSH0 DUP4 ADD MSTORE PUSH2 0xC61 DUP2 PUSH2 0xC28 JUMP JUMPDEST SWAP1 POP SWAP2 SWAP1 POP JUMP JUMPDEST PUSH32 0x4E487B7100000000000000000000000000000000000000000000000000000000 PUSH0 MSTORE PUSH1 0x11 PUSH1 0x4 MSTORE PUSH1 0x24 PUSH0 REVERT JUMPDEST PUSH0 PUSH2 0xC9F DUP3 PUSH2 0x813 JUMP JUMPDEST SWAP2 POP PUSH32 0xFFFFFFFFFFFFFFFFFFFFFFFFFFFFFFFFFFFFFFFFFFFFFFFFFFFFFFFFFFFFFFFF DUP3 SUB PUSH2 0xCD1 JUMPI PUSH2 0xCD0 PUSH2 0xC68 JUMP JUMPDEST JUMPDEST PUSH1 0x1 DUP3 ADD SWAP1 POP SWAP2 SWAP1 POP JUMP JUMPDEST PUSH32 0x4E487B7100000000000000000000000000000000000000000000000000000000 PUSH0 MSTORE PUSH1 0x22 PUSH1 0x4 MSTORE PUSH1 0x24 PUSH0 REVERT JUMPDEST PUSH0 PUSH1 0x2 DUP3 DIV SWAP1 POP PUSH1 0x1 DUP3 AND DUP1 PUSH2 0xD20 JUMPI PUSH1 0x7F DUP3 AND SWAP2 POP JUMPDEST PUSH1 0x20 DUP3 LT DUP2 SUB PUSH2 0xD33 JUMPI PUSH2 0xD32 PUSH2 0xCDC JUMP JUMPDEST JUMPDEST POP SWAP2 SWAP1 POP JUMP JUMPDEST PUSH32 0x41647265737365206E6F6E206175746F7269736565206120616A6F7574657220 PUSH0 DUP3 ADD MSTORE PUSH32 0x756E2063616E6469646174000000000000000000000000000000000000000000 PUSH1 0x20 DUP3 ADD MSTORE POP JUMP JUMPDEST PUSH0 PUSH2 0xD93 PUSH1 0x2B DUP4 PUSH2 0x8A3 JUMP JUMPDEST SWAP2 POP PUSH2 0xD9E DUP3 PUSH2 0xD39 JUMP JUMPDEST PUSH1 0x40 DUP3 ADD SWAP1 POP SWAP2 SWAP1 POP JUMP JUMPDEST PUSH0 PUSH1 0x20 DUP3 ADD SWAP1 POP DUP2 DUP2 SUB PUSH0 DUP4 ADD MSTORE PUSH2 0xDC0 DUP2 PUSH2 0xD87 JUMP JUMPDEST SWAP1 POP SWAP2 SWAP1 POP JUMP JUMPDEST PUSH0 DUP2 SWAP1 POP DUP2 PUSH0 MSTORE PUSH1 0x20 PUSH0 KECCAK256 SWAP1 POP SWAP2 SWAP1 POP JUMP JUMPDEST PUSH0 PUSH1 0x20 PUSH1 0x1F DUP4 ADD DIV SWAP1 POP SWAP2 SWAP1 POP JUMP JUMPDEST PUSH0 DUP3 DUP3 SHL SWAP1 POP SWAP3 SWAP2 POP POP JUMP JUMPDEST PUSH0 PUSH1 0x8 DUP4 MUL PUSH2 0xE23 PUSH32 0xFFFFFFFFFFFFFFFFFFFFFFFFFFFFFFFFFFFFFFFFFFFFFFFFFFFFFFFFFFFFFFFF DUP3 PUSH2 0xDE8 JUMP JUMPDEST PUSH2 0xE2D DUP7 DUP4 PUSH2 0xDE8 JUMP JUMPDEST SWAP6 POP DUP1 NOT DUP5 AND SWAP4 POP DUP1 DUP7 AND DUP5 OR SWAP3 POP POP POP SWAP4 SWAP3 POP POP POP JUMP JUMPDEST PUSH0 DUP2 SWAP1 POP SWAP2 SWAP1 POP JUMP JUMPDEST PUSH0 PUSH2 0xE68 PUSH2 0xE63 PUSH2 0xE5E DUP5 PUSH2 0x813 JUMP JUMPDEST PUSH2 0xE45 JUMP JUMPDEST PUSH2 0x813 JUMP JUMPDEST SWAP1 POP SWAP2 SWAP1 POP JUMP JUMPDEST PUSH0 DUP2 SWAP1 POP SWAP2 SWAP1 POP JUMP JUMPDEST PUSH2 0xE81 DUP4 PUSH2 0xE4E JUMP JUMPDEST PUSH2 0xE95 PUSH2 0xE8D DUP3 PUSH2 0xE6F JUMP JUMPDEST DUP5 DUP5 SLOAD PUSH2 0xDF4 JUMP JUMPDEST DUP3 SSTORE POP POP POP POP JUMP JUMPDEST PUSH0 SWAP1 JUMP JUMPDEST PUSH2 0xEA9 PUSH2 0xE9D JUMP JUMPDEST PUSH2 0xEB4 DUP2 DUP5 DUP5 PUSH2 0xE78 JUMP JUMPDEST POP POP POP JUMP JUMPDEST JUMPDEST DUP2 DUP2 LT ISZERO PUSH2 0xED7 JUMPI PUSH2 0xECC PUSH0 DUP3 PUSH2 0xEA1 JUMP JUMPDEST PUSH1 0x1 DUP2 ADD SWAP1 POP PUSH2 0xEBA JUMP JUMPDEST POP POP JUMP JUMPDEST PUSH1 0x1F DUP3 GT ISZERO PUSH2 0xF1C JUMPI PUSH2 0xEED DUP2 PUSH2 0xDC7 JUMP JUMPDEST PUSH2 0xEF6 DUP5 PUSH2 0xDD9 JUMP JUMPDEST DUP2 ADD PUSH1 0x20 DUP6 LT ISZERO PUSH2 0xF05 JUMPI DUP2 SWAP1 POP JUMPDEST PUSH2 0xF19 PUSH2 0xF11 DUP6 PUSH2 0xDD9 JUMP JUMPDEST DUP4 ADD DUP3 PUSH2 0xEB9 JUMP JUMPDEST POP POP JUMPDEST POP POP POP JUMP JUMPDEST PUSH0 DUP3 DUP3 SHR SWAP1 POP SWAP3 SWAP2 POP POP JUMP JUMPDEST PUSH0 PUSH2 0xF3C PUSH0 NOT DUP5 PUSH1 0x8 MUL PUSH2 0xF21 JUMP JUMPDEST NOT DUP1 DUP4 AND SWAP2 POP POP SWAP3 SWAP2 POP POP JUMP JUMPDEST PUSH0 PUSH2 0xF54 DUP4 DUP4 PUSH2 0xF2D JUMP JUMPDEST SWAP2 POP DUP3 PUSH1 0x2 MUL DUP3 OR SWAP1 POP SWAP3 SWAP2 POP POP JUMP JUMPDEST PUSH2 0xF6D DUP3 PUSH2 0x899 JUMP JUMPDEST PUSH8 0xFFFFFFFFFFFFFFFF DUP2 GT ISZERO PUSH2 0xF86 JUMPI PUSH2 0xF85 PUSH2 0x94D JUMP JUMPDEST JUMPDEST PUSH2 0xF90 DUP3 SLOAD PUSH2 0xD09 JUMP JUMPDEST PUSH2 0xF9B DUP3 DUP3 DUP6 PUSH2 0xEDB JUMP JUMPDEST PUSH0 PUSH1 0x20 SWAP1 POP PUSH1 0x1F DUP4 GT PUSH1 0x1 DUP2 EQ PUSH2 0xFCC JUMPI PUSH0 DUP5 ISZERO PUSH2 0xFBA JUMPI DUP3 DUP8 ADD MLOAD SWAP1 POP JUMPDEST PUSH2 0xFC4 DUP6 DUP3 PUSH2 0xF49 JUMP JUMPDEST DUP7 SSTORE POP PUSH2 0x102B JUMP JUMPDEST PUSH1 0x1F NOT DUP5 AND PUSH2 0xFDA DUP7 PUSH2 0xDC7 JUMP JUMPDEST PUSH0 JUMPDEST DUP3 DUP2 LT ISZERO PUSH2 0x1001 JUMPI DUP5 DUP10 ADD MLOAD DUP3 SSTORE PUSH1 0x1 DUP3 ADD SWAP2 POP PUSH1 0x20 DUP6 ADD SWAP5 POP PUSH1 0x20 DUP2 ADD SWAP1 POP PUSH2 0xFDC JUMP JUMPDEST DUP7 DUP4 LT ISZERO PUSH2 0x101E JUMPI DUP5 DUP10 ADD MLOAD PUSH2 0x101A PUSH1 0x1F DUP10 AND DUP3 PUSH2 0xF2D JUMP JUMPDEST DUP4 SSTORE POP JUMPDEST PUSH1 0x1 PUSH1 0x2 DUP9 MUL ADD DUP9 SSTORE POP POP POP JUMPDEST POP POP POP POP POP POP JUMP JUMPDEST PUSH32 0x4E6F7420617574686F72697A6564206F7065726174696F6E0000000000000000 PUSH0 DUP3 ADD MSTORE POP JUMP JUMPDEST PUSH0 PUSH2 0x1067 PUSH1 0x18 DUP4 PUSH2 0x8A3 JUMP JUMPDEST SWAP2 POP PUSH2 0x1072 DUP3 PUSH2 0x1033 JUMP JUMPDEST PUSH1 0x20 DUP3 ADD SWAP1 POP SWAP2 SWAP1 POP JUMP JUMPDEST PUSH0 PUSH1 0x20 DUP3 ADD SWAP1 POP DUP2 DUP2 SUB PUSH0 DUP4 ADD MSTORE PUSH2 0x1094 DUP2 PUSH2 0x105B JUMP JUMPDEST SWAP1 POP SWAP2 SWAP1 POP JUMP JUMPDEST PUSH32 0x416464726573732073686F756C646E2774206265207A65726F00000000000000 PUSH0 DUP3 ADD MSTORE POP JUMP JUMPDEST PUSH0 PUSH2 0x10CF PUSH1 0x19 DUP4 PUSH2 0x8A3 JUMP JUMPDEST SWAP2 POP PUSH2 0x10DA DUP3 PUSH2 0x109B JUMP JUMPDEST PUSH1 0x20 DUP3 ADD SWAP1 POP SWAP2 SWAP1 POP JUMP JUMPDEST PUSH0 PUSH1 0x20 DUP3 ADD SWAP1 POP DUP2 DUP2 SUB PUSH0 DUP4 ADD MSTORE PUSH2 0x10FC DUP2 PUSH2 0x10C3 JUMP JUMPDEST SWAP1 POP SWAP2 SWAP1 POP JUMP INVALID LOG2 PUSH5 0x6970667358 0x22 SLT KECCAK256 CALLCODE 0xD1 MLOAD CALLVALUE 0xE6 0xB1 SELFBALANCE NOT 0xD1 CODECOPY 0x26 0xCB BALANCE 0xC0 PUSH13 0x42CA16B0961F2A5DC95C00883D PUSH6 0x7BAE4764736F PUSH13 0x634300081A0033000000000000 "
				},
				"gasEstimates": {
					"creation": {
						"codeDepositCost": "881800",
						"executionCost": "25179",
						"totalCost": "906979"
					},
					"external": {
						"addCandidate(string)": "infinite",
						"addToWhitelist(address)": "27035",
						"candidates(uint256)": "infinite",
						"candidatesCount()": "2448",
						"owner()": "2505",
						"transferOwnership(address)": "30680",
						"vote(uint256)": "infinite",
						"voters(address)": "2877",
						"whitelist(address)": "2855"
					}
				},
				"methodIdentifiers": {
					"addCandidate(string)": "462e91ec",
					"addToWhitelist(address)": "e43252d7",
					"candidates(uint256)": "3477ee2e",
					"candidatesCount()": "2d35a8a2",
					"owner()": "8da5cb5b",
					"transferOwnership(address)": "f2fde38b",
					"vote(uint256)": "0121b93f",
					"voters(address)": "a3ec138d",
					"whitelist(address)": "9b19251a"
				}
			},
			"storageLayout": {
				"storage": [
					{
						"astId": 124,
						"contract": "Code/contracts/Election.sol:Election",
						"label": "owner",
						"offset": 0,
						"slot": "0",
						"type": "t_address"
					},
					{
						"astId": 19,
						"contract": "Code/contracts/Election.sol:Election",
						"label": "voters",
						"offset": 0,
						"slot": "1",
						"type": "t_mapping(t_address,t_bool)"
					},
					{
						"astId": 24,
						"contract": "Code/contracts/Election.sol:Election",
						"label": "candidates",
						"offset": 0,
						"slot": "2",
						"type": "t_mapping(t_uint256,t_struct(Candidate)15_storage)"
					},
					{
						"astId": 26,
						"contract": "Code/contracts/Election.sol:Election",
						"label": "candidatesCount",
						"offset": 0,
						"slot": "3",
						"type": "t_uint256"
					},
					{
						"astId": 30,
						"contract": "Code/contracts/Election.sol:Election",
						"label": "whitelist",
						"offset": 0,
						"slot": "4",
						"type": "t_mapping(t_address,t_bool)"
					}
				],
				"types": {
					"t_address": {
						"encoding": "inplace",
						"label": "address",
						"numberOfBytes": "20"
					},
					"t_bool": {
						"encoding": "inplace",
						"label": "bool",
						"numberOfBytes": "1"
					},
					"t_mapping(t_address,t_bool)": {
						"encoding": "mapping",
						"key": "t_address",
						"label": "mapping(address => bool)",
						"numberOfBytes": "32",
						"value": "t_bool"
					},
					"t_mapping(t_uint256,t_struct(Candidate)15_storage)": {
						"encoding": "mapping",
						"key": "t_uint256",
						"label": "mapping(uint256 => struct Election.Candidate)",
						"numberOfBytes": "32",
						"value": "t_struct(Candidate)15_storage"
					},
					"t_string_storage": {
						"encoding": "bytes",
						"label": "string",
						"numberOfBytes": "32"
					},
					"t_struct(Candidate)15_storage": {
						"encoding": "inplace",
						"label": "struct Election.Candidate",
						"members": [
							{
								"astId": 10,
								"contract": "Code/contracts/Election.sol:Election",
								"label": "id",
								"offset": 0,
								"slot": "0",
								"type": "t_uint256"
							},
							{
								"astId": 12,
								"contract": "Code/contracts/Election.sol:Election",
								"label": "name",
								"offset": 0,
								"slot": "1",
								"type": "t_string_storage"
							},
							{
								"astId": 14,
								"contract": "Code/contracts/Election.sol:Election",
								"label": "voteCount",
								"offset": 0,
								"slot": "2",
								"type": "t_uint256"
							}
						],
						"numberOfBytes": "96"
					},
					"t_uint256": {
						"encoding": "inplace",
						"label": "uint256",
						"numberOfBytes": "32"
					}
				}
			},
			"userdoc": {
				"kind": "user",
				"methods": {},
				"version": 1
			}
		}
	}
}